{
  "_format": "hh-sol-artifact-1",
  "contractName": "Web3bnb",
  "sourceName": "ethereum/contracts/Web3bnb.sol",
  "abi": [
    {
      "inputs": [
        {
          "internalType": "string",
          "name": "name_",
          "type": "string"
        },
        {
          "internalType": "string",
          "name": "symbol_",
          "type": "string"
        }
      ],
      "stateMutability": "nonpayable",
      "type": "constructor"
    },
    {
      "anonymous": false,
      "inputs": [
        {
          "indexed": true,
          "internalType": "address",
          "name": "owner",
          "type": "address"
        },
        {
          "indexed": true,
          "internalType": "address",
          "name": "spender",
          "type": "address"
        },
        {
          "indexed": false,
          "internalType": "uint256",
          "name": "value",
          "type": "uint256"
        }
      ],
      "name": "Approval",
      "type": "event"
    },
    {
      "anonymous": false,
      "inputs": [
        {
          "indexed": false,
          "internalType": "uint256",
          "name": "amount",
          "type": "uint256"
        },
        {
          "indexed": false,
          "internalType": "uint256",
          "name": "dividendPerToken",
          "type": "uint256"
        }
      ],
      "name": "FundsReceived",
      "type": "event"
    },
    {
      "anonymous": false,
      "inputs": [
        {
          "indexed": true,
          "internalType": "address",
          "name": "previousOwner",
          "type": "address"
        },
        {
          "indexed": true,
          "internalType": "address",
          "name": "newOwner",
          "type": "address"
        }
      ],
      "name": "OwnershipTransferred",
      "type": "event"
    },
    {
      "anonymous": false,
      "inputs": [
        {
          "indexed": true,
          "internalType": "address",
          "name": "from",
          "type": "address"
        },
        {
          "indexed": true,
          "internalType": "address",
          "name": "to",
          "type": "address"
        },
        {
          "indexed": false,
          "internalType": "uint256",
          "name": "value",
          "type": "uint256"
        }
      ],
      "name": "Transfer",
      "type": "event"
    },
    {
      "inputs": [],
      "name": "MAX_SUPPLY",
      "outputs": [
        {
          "internalType": "uint256",
          "name": "",
          "type": "uint256"
        }
      ],
      "stateMutability": "view",
      "type": "function"
    },
    {
      "inputs": [
        {
          "internalType": "address",
          "name": "owner",
          "type": "address"
        },
        {
          "internalType": "address",
          "name": "spender",
          "type": "address"
        }
      ],
      "name": "allowance",
      "outputs": [
        {
          "internalType": "uint256",
          "name": "",
          "type": "uint256"
        }
      ],
      "stateMutability": "view",
      "type": "function"
    },
    {
      "inputs": [
        {
          "internalType": "address",
          "name": "spender",
          "type": "address"
        },
        {
          "internalType": "uint256",
          "name": "amount",
          "type": "uint256"
        }
      ],
      "name": "approve",
      "outputs": [
        {
          "internalType": "bool",
          "name": "",
          "type": "bool"
        }
      ],
      "stateMutability": "nonpayable",
      "type": "function"
    },
    {
      "inputs": [
        {
          "internalType": "address",
          "name": "account",
          "type": "address"
        }
      ],
      "name": "balanceOf",
      "outputs": [
        {
          "internalType": "uint256",
          "name": "",
          "type": "uint256"
        }
      ],
      "stateMutability": "view",
      "type": "function"
    },
    {
      "inputs": [
        {
          "internalType": "uint256[]",
          "name": "dates",
          "type": "uint256[]"
        }
      ],
      "name": "createBooking",
      "outputs": [],
      "stateMutability": "payable",
      "type": "function"
    },
    {
      "inputs": [],
      "name": "decimals",
      "outputs": [
        {
          "internalType": "uint8",
          "name": "",
          "type": "uint8"
        }
      ],
      "stateMutability": "view",
      "type": "function"
    },
    {
      "inputs": [
        {
          "internalType": "address",
          "name": "spender",
          "type": "address"
        },
        {
          "internalType": "uint256",
          "name": "subtractedValue",
          "type": "uint256"
        }
      ],
      "name": "decreaseAllowance",
      "outputs": [
        {
          "internalType": "bool",
          "name": "",
          "type": "bool"
        }
      ],
      "stateMutability": "nonpayable",
      "type": "function"
    },
    {
      "inputs": [],
      "name": "emergencyWithdraw",
      "outputs": [],
      "stateMutability": "nonpayable",
      "type": "function"
    },
    {
      "inputs": [],
      "name": "getBookings",
      "outputs": [
        {
          "components": [
            {
              "internalType": "address",
              "name": "renter",
              "type": "address"
            },
            {
              "internalType": "uint256",
              "name": "amountPaid",
              "type": "uint256"
            },
            {
              "internalType": "uint256[]",
              "name": "dates",
              "type": "uint256[]"
            }
          ],
          "internalType": "struct Web3bnb.Booking[]",
          "name": "",
          "type": "tuple[]"
        }
      ],
      "stateMutability": "view",
      "type": "function"
    },
    {
      "inputs": [],
      "name": "getRate",
      "outputs": [
        {
          "internalType": "uint256",
          "name": "",
          "type": "uint256"
        }
      ],
      "stateMutability": "view",
      "type": "function"
    },
    {
      "inputs": [
        {
          "internalType": "address",
          "name": "spender",
          "type": "address"
        },
        {
          "internalType": "uint256",
          "name": "addedValue",
          "type": "uint256"
        }
      ],
      "name": "increaseAllowance",
      "outputs": [
        {
          "internalType": "bool",
          "name": "",
          "type": "bool"
        }
      ],
      "stateMutability": "nonpayable",
      "type": "function"
    },
    {
      "inputs": [],
      "name": "locked",
      "outputs": [
        {
          "internalType": "bool",
          "name": "",
          "type": "bool"
        }
      ],
      "stateMutability": "view",
      "type": "function"
    },
    {
      "inputs": [
        {
          "internalType": "address",
          "name": "to_",
          "type": "address"
        },
        {
          "internalType": "uint256",
          "name": "amount_",
          "type": "uint256"
        }
      ],
      "name": "mint",
      "outputs": [],
      "stateMutability": "nonpayable",
      "type": "function"
    },
    {
      "inputs": [],
      "name": "name",
      "outputs": [
        {
          "internalType": "string",
          "name": "",
          "type": "string"
        }
      ],
      "stateMutability": "view",
      "type": "function"
    },
    {
      "inputs": [],
      "name": "owner",
      "outputs": [
        {
          "internalType": "address",
          "name": "",
          "type": "address"
        }
      ],
      "stateMutability": "view",
      "type": "function"
    },
    {
      "inputs": [],
      "name": "renounceOwnership",
      "outputs": [],
      "stateMutability": "nonpayable",
      "type": "function"
    },
    {
      "inputs": [
        {
          "internalType": "uint256",
          "name": "rate_",
          "type": "uint256"
        }
      ],
      "name": "setRate",
      "outputs": [],
      "stateMutability": "nonpayable",
      "type": "function"
    },
    {
      "inputs": [],
      "name": "symbol",
      "outputs": [
        {
          "internalType": "string",
          "name": "",
          "type": "string"
        }
      ],
      "stateMutability": "view",
      "type": "function"
    },
    {
      "inputs": [],
      "name": "toggleLock",
      "outputs": [],
      "stateMutability": "nonpayable",
      "type": "function"
    },
    {
      "inputs": [],
      "name": "totalSupply",
      "outputs": [
        {
          "internalType": "uint256",
          "name": "",
          "type": "uint256"
        }
      ],
      "stateMutability": "view",
      "type": "function"
    },
    {
      "inputs": [
        {
          "internalType": "address",
          "name": "to",
          "type": "address"
        },
        {
          "internalType": "uint256",
          "name": "amount",
          "type": "uint256"
        }
      ],
      "name": "transfer",
      "outputs": [
        {
          "internalType": "bool",
          "name": "",
          "type": "bool"
        }
      ],
      "stateMutability": "nonpayable",
      "type": "function"
    },
    {
      "inputs": [
        {
          "internalType": "address",
          "name": "from",
          "type": "address"
        },
        {
          "internalType": "address",
          "name": "to",
          "type": "address"
        },
        {
          "internalType": "uint256",
          "name": "amount",
          "type": "uint256"
        }
      ],
      "name": "transferFrom",
      "outputs": [
        {
          "internalType": "bool",
          "name": "",
          "type": "bool"
        }
      ],
      "stateMutability": "nonpayable",
      "type": "function"
    },
    {
      "inputs": [
        {
          "internalType": "address",
          "name": "newOwner",
          "type": "address"
        }
      ],
      "name": "transferOwnership",
      "outputs": [],
      "stateMutability": "nonpayable",
      "type": "function"
    },
    {
      "inputs": [],
      "name": "withdraw",
      "outputs": [],
      "stateMutability": "nonpayable",
      "type": "function"
    },
    {
      "stateMutability": "payable",
      "type": "receive"
    }
  ],
  "bytecode": "0x60806040523480156200001157600080fd5b50604051620035d0380380620035d08339818101604052810190620000379190620002a5565b8181620000596200004d620000b760201b60201c565b620000bf60201b60201c565b6001808190555081600590805190602001906200007892919062000183565b5080600690805190602001906200009192919062000183565b5050506001600b60006101000a81548160ff021916908315150217905550505062000488565b600033905090565b60008060009054906101000a900473ffffffffffffffffffffffffffffffffffffffff169050816000806101000a81548173ffffffffffffffffffffffffffffffffffffffff021916908373ffffffffffffffffffffffffffffffffffffffff1602179055508173ffffffffffffffffffffffffffffffffffffffff168173ffffffffffffffffffffffffffffffffffffffff167f8be0079c531659141344cd1fd0a4f28419497f9722a3daafe3b4186f6b6457e060405160405180910390a35050565b8280546200019190620003ad565b90600052602060002090601f016020900481019282620001b5576000855562000201565b82601f10620001d057805160ff191683800117855562000201565b8280016001018555821562000201579182015b8281111562000200578251825591602001919060010190620001e3565b5b50905062000210919062000214565b5090565b5b808211156200022f57600081600090555060010162000215565b5090565b60006200024a620002448462000341565b62000318565b9050828152602081018484840111156200026357600080fd5b6200027084828562000377565b509392505050565b600082601f8301126200028a57600080fd5b81516200029c84826020860162000233565b91505092915050565b60008060408385031215620002b957600080fd5b600083015167ffffffffffffffff811115620002d457600080fd5b620002e28582860162000278565b925050602083015167ffffffffffffffff8111156200030057600080fd5b6200030e8582860162000278565b9150509250929050565b60006200032462000337565b9050620003328282620003e3565b919050565b6000604051905090565b600067ffffffffffffffff8211156200035f576200035e62000448565b5b6200036a8262000477565b9050602081019050919050565b60005b83811015620003975780820151818401526020810190506200037a565b83811115620003a7576000848401525b50505050565b60006002820490506001821680620003c657607f821691505b60208210811415620003dd57620003dc62000419565b5b50919050565b620003ee8262000477565b810181811067ffffffffffffffff8211171562000410576200040f62000448565b5b80604052505050565b7f4e487b7100000000000000000000000000000000000000000000000000000000600052602260045260246000fd5b7f4e487b7100000000000000000000000000000000000000000000000000000000600052604160045260246000fd5b6000601f19601f8301169050919050565b61313880620004986000396000f3fe60806040526004361061014f5760003560e01c806370a08231116100b6578063a9059cbb1161006f578063a9059cbb14610489578063cf309012146104c6578063db2e21bc146104f1578063dd62ed3e14610508578063f2fde38b14610545578063ff9413d81461056e5761015f565b806370a0823114610377578063715018a6146103b45780638da5cb5b146103cb578063955c8420146103f657806395d89b4114610421578063a457c2d71461044c5761015f565b806334fcf4371161010857806334fcf4371461028a57806339509351146102b35780633ccfd60b146102f057806340c10f19146103075780634a7a124714610330578063679aefce1461034c5761015f565b806306fdde0314610164578063095ea7b31461018f57806318160ddd146101cc57806323b872dd146101f7578063313ce5671461023457806332cb6b0c1461025f5761015f565b3661015f5761015d34610585565b005b600080fd5b34801561017057600080fd5b5061017961064e565b6040516101869190612685565b60405180910390f35b34801561019b57600080fd5b506101b660048036038101906101b191906120d0565b6106e0565b6040516101c3919061266a565b60405180910390f35b3480156101d857600080fd5b506101e1610703565b6040516101ee9190612907565b60405180910390f35b34801561020357600080fd5b5061021e60048036038101906102199190612081565b61070d565b60405161022b919061266a565b60405180910390f35b34801561024057600080fd5b5061024961073c565b604051610256919061294b565b60405180910390f35b34801561026b57600080fd5b50610274610745565b6040516102819190612907565b60405180910390f35b34801561029657600080fd5b506102b160048036038101906102ac9190612151565b610752565b005b3480156102bf57600080fd5b506102da60048036038101906102d591906120d0565b6107d8565b6040516102e7919061266a565b60405180910390f35b3480156102fc57600080fd5b5061030561080f565b005b34801561031357600080fd5b5061032e600480360381019061032991906120d0565b610b29565b005b61034a6004803603810190610345919061210c565b610c1c565b005b34801561035857600080fd5b50610361610f96565b60405161036e9190612907565b60405180910390f35b34801561038357600080fd5b5061039e6004803603810190610399919061201c565b610fa0565b6040516103ab9190612907565b60405180910390f35b3480156103c057600080fd5b506103c9610fe9565b005b3480156103d757600080fd5b506103e0611071565b6040516103ed919061262d565b60405180910390f35b34801561040257600080fd5b5061040b61109a565b6040516104189190612648565b60405180910390f35b34801561042d57600080fd5b506104366111b1565b6040516104439190612685565b60405180910390f35b34801561045857600080fd5b50610473600480360381019061046e91906120d0565b611243565b604051610480919061266a565b60405180910390f35b34801561049557600080fd5b506104b060048036038101906104ab91906120d0565b6112ba565b6040516104bd919061266a565b60405180910390f35b3480156104d257600080fd5b506104db6112dd565b6040516104e8919061266a565b60405180910390f35b3480156104fd57600080fd5b506105066112f0565b005b34801561051457600080fd5b5061052f600480360381019061052a9190612045565b611422565b60405161053c9190612907565b60405180910390f35b34801561055157600080fd5b5061056c6004803603810190610567919061201c565b6114a9565b005b34801561057a57600080fd5b506105836115a1565b005b600061058f610703565b14156105d0576040517f08c379a00000000000000000000000000000000000000000000000000000000081526004016105c7906126e7565b60405180910390fd5b6105d8610703565b633b9aca0063ffffffff16826105ee9190612a86565b6105f89190612a55565b6008600082825461060991906129ff565b925050819055507f063d07ee72a7483b8e07ca09054bb686775c5c030f945dde3823a5257a0a93eb81600854604051610643929190612922565b60405180910390a150565b60606005805461065d90612b9c565b80601f016020809104026020016040519081016040528092919081815260200182805461068990612b9c565b80156106d65780601f106106ab576101008083540402835291602001916106d6565b820191906000526020600020905b8154815290600101906020018083116106b957829003601f168201915b5050505050905090565b6000806106eb611649565b90506106f8818585611651565b600191505092915050565b6000600454905090565b600080610718611649565b905061072585828561181c565b6107308585856118a8565b60019150509392505050565b60006012905090565b68056bc75e2d6310000081565b61075a611649565b73ffffffffffffffffffffffffffffffffffffffff16610778611071565b73ffffffffffffffffffffffffffffffffffffffff16146107ce576040517f08c379a00000000000000000000000000000000000000000000000000000000081526004016107c5906127e7565b60405180910390fd5b8060078190555050565b6000806107e3611649565b90506108048185856107f58589611422565b6107ff91906129ff565b611651565b600191505092915050565b60026001541415610855576040517f08c379a000000000000000000000000000000000000000000000000000000000815260040161084c906128a7565b60405180910390fd5b6002600181905550600b60009054906101000a900460ff16156108ad576040517f08c379a00000000000000000000000000000000000000000000000000000000081526004016108a490612787565b60405180910390fd5b60006108bf6108ba611649565b610fa0565b90506000633b9aca0063ffffffff1682600960006108db611649565b73ffffffffffffffffffffffffffffffffffffffff1673ffffffffffffffffffffffffffffffffffffffff168152602001908152602001600020546008546109239190612ae0565b61092d9190612a86565b6109379190612a55565b9050600a6000610945611649565b73ffffffffffffffffffffffffffffffffffffffff1673ffffffffffffffffffffffffffffffffffffffff168152602001908152602001600020548161098b91906129ff565b905060008114156109d1576040517f08c379a00000000000000000000000000000000000000000000000000000000081526004016109c890612887565b60405180910390fd5b6000600a60006109df611649565b73ffffffffffffffffffffffffffffffffffffffff1673ffffffffffffffffffffffffffffffffffffffff1681526020019081526020016000208190555060085460096000610a2c611649565b73ffffffffffffffffffffffffffffffffffffffff1673ffffffffffffffffffffffffffffffffffffffff168152602001908152602001600020819055506000610a74611649565b73ffffffffffffffffffffffffffffffffffffffff1682604051610a9790612618565b60006040518083038185875af1925050503d8060008114610ad4576040519150601f19603f3d011682016040523d82523d6000602084013e610ad9565b606091505b5050905080610b1d576040517f08c379a0000000000000000000000000000000000000000000000000000000008152600401610b1490612727565b60405180910390fd5b50505060018081905550565b610b31611649565b73ffffffffffffffffffffffffffffffffffffffff16610b4f611071565b73ffffffffffffffffffffffffffffffffffffffff1614610ba5576040517f08c379a0000000000000000000000000000000000000000000000000000000008152600401610b9c906127e7565b60405180910390fd5b8068056bc75e2d63100000610bb8610703565b82610bc391906129ff565b1115610c04576040517f08c379a0000000000000000000000000000000000000000000000000000000008152600401610bfb90612807565b60405180910390fd5b610c0d83611b2c565b610c178383611c54565b505050565b600760ff16828290501115610c66576040517f08c379a0000000000000000000000000000000000000000000000000000000008152600401610c5d90612847565b60405180910390fd5b60005b828290508160ff161015610e0057600073ffffffffffffffffffffffffffffffffffffffff16600d600085858560ff16818110610ccf577f4e487b7100000000000000000000000000000000000000000000000000000000600052603260045260246000fd5b90506020020135815260200190815260200160002060009054906101000a900473ffffffffffffffffffffffffffffffffffffffff1673ffffffffffffffffffffffffffffffffffffffff1614610d5b576040517f08c379a0000000000000000000000000000000000000000000000000000000008152600401610d5290612707565b60405180910390fd5b33600d600085858560ff16818110610d9c577f4e487b7100000000000000000000000000000000000000000000000000000000600052603260045260246000fd5b90506020020135815260200190815260200160002060006101000a81548173ffffffffffffffffffffffffffffffffffffffff021916908373ffffffffffffffffffffffffffffffffffffffff16021790555080610df990612bce565b9050610c69565b50610e09611f07565b60075483839050610e1a9190612a86565b81602001818152505033816000019073ffffffffffffffffffffffffffffffffffffffff16908173ffffffffffffffffffffffffffffffffffffffff1681525050828280806020026020016040519081016040528093929190818152602001838360200280828437600081840152601f19601f8201169050808301925050505050505081604001819052508060200151341015610eec576040517f08c379a0000000000000000000000000000000000000000000000000000000008152600401610ee3906126c7565b60405180910390fd5b610ef534610585565b600c81908060018154018082558091505060019003906000526020600020906003020160009091909190915060008201518160000160006101000a81548173ffffffffffffffffffffffffffffffffffffffff021916908373ffffffffffffffffffffffffffffffffffffffff160217905550602082015181600101556040820151816002019080519060200190610f8e929190611f3e565b505050505050565b6000600754905090565b6000600260008373ffffffffffffffffffffffffffffffffffffffff1673ffffffffffffffffffffffffffffffffffffffff168152602001908152602001600020549050919050565b610ff1611649565b73ffffffffffffffffffffffffffffffffffffffff1661100f611071565b73ffffffffffffffffffffffffffffffffffffffff1614611065576040517f08c379a000000000000000000000000000000000000000000000000000000000815260040161105c906127e7565b60405180910390fd5b61106f6000611db5565b565b60008060009054906101000a900473ffffffffffffffffffffffffffffffffffffffff16905090565b6060600c805480602002602001604051908101604052809291908181526020016000905b828210156111a857838290600052602060002090600302016040518060600160405290816000820160009054906101000a900473ffffffffffffffffffffffffffffffffffffffff1673ffffffffffffffffffffffffffffffffffffffff1673ffffffffffffffffffffffffffffffffffffffff168152602001600182015481526020016002820180548060200260200160405190810160405280929190818152602001828054801561119057602002820191906000526020600020905b81548152602001906001019080831161117c575b505050505081525050815260200190600101906110be565b50505050905090565b6060600680546111c090612b9c565b80601f01602080910402602001604051908101604052809291908181526020018280546111ec90612b9c565b80156112395780601f1061120e57610100808354040283529160200191611239565b820191906000526020600020905b81548152906001019060200180831161121c57829003601f168201915b5050505050905090565b60008061124e611649565b9050600061125c8286611422565b9050838110156112a1576040517f08c379a0000000000000000000000000000000000000000000000000000000008152600401611298906128c7565b60405180910390fd5b6112ae8286868403611651565b60019250505092915050565b6000806112c5611649565b90506112d28185856118a8565b600191505092915050565b600b60009054906101000a900460ff1681565b6112f8611649565b73ffffffffffffffffffffffffffffffffffffffff16611316611071565b73ffffffffffffffffffffffffffffffffffffffff161461136c576040517f08c379a0000000000000000000000000000000000000000000000000000000008152600401611363906127e7565b60405180910390fd5b6000611376611071565b73ffffffffffffffffffffffffffffffffffffffff164760405161139990612618565b60006040518083038185875af1925050503d80600081146113d6576040519150601f19603f3d011682016040523d82523d6000602084013e6113db565b606091505b505090508061141f576040517f08c379a000000000000000000000000000000000000000000000000000000000815260040161141690612727565b60405180910390fd5b50565b6000600360008473ffffffffffffffffffffffffffffffffffffffff1673ffffffffffffffffffffffffffffffffffffffff16815260200190815260200160002060008373ffffffffffffffffffffffffffffffffffffffff1673ffffffffffffffffffffffffffffffffffffffff16815260200190815260200160002054905092915050565b6114b1611649565b73ffffffffffffffffffffffffffffffffffffffff166114cf611071565b73ffffffffffffffffffffffffffffffffffffffff1614611525576040517f08c379a000000000000000000000000000000000000000000000000000000000815260040161151c906127e7565b60405180910390fd5b600073ffffffffffffffffffffffffffffffffffffffff168173ffffffffffffffffffffffffffffffffffffffff161415611595576040517f08c379a000000000000000000000000000000000000000000000000000000000815260040161158c90612747565b60405180910390fd5b61159e81611db5565b50565b6115a9611649565b73ffffffffffffffffffffffffffffffffffffffff166115c7611071565b73ffffffffffffffffffffffffffffffffffffffff161461161d576040517f08c379a0000000000000000000000000000000000000000000000000000000008152600401611614906127e7565b60405180910390fd5b600b60009054906101000a900460ff1615600b60006101000a81548160ff021916908315150217905550565b600033905090565b600073ffffffffffffffffffffffffffffffffffffffff168373ffffffffffffffffffffffffffffffffffffffff1614156116c1576040517f08c379a00000000000000000000000000000000000000000000000000000000081526004016116b890612867565b60405180910390fd5b600073ffffffffffffffffffffffffffffffffffffffff168273ffffffffffffffffffffffffffffffffffffffff161415611731576040517f08c379a000000000000000000000000000000000000000000000000000000000815260040161172890612767565b60405180910390fd5b80600360008573ffffffffffffffffffffffffffffffffffffffff1673ffffffffffffffffffffffffffffffffffffffff16815260200190815260200160002060008473ffffffffffffffffffffffffffffffffffffffff1673ffffffffffffffffffffffffffffffffffffffff168152602001908152602001600020819055508173ffffffffffffffffffffffffffffffffffffffff168373ffffffffffffffffffffffffffffffffffffffff167f8c5be1e5ebec7d5bd14f71427d1e84f3dd0314c0f7b2291e5b200ac8c7c3b9258360405161180f9190612907565b60405180910390a3505050565b60006118288484611422565b90507fffffffffffffffffffffffffffffffffffffffffffffffffffffffffffffffff81146118a25781811015611894576040517f08c379a000000000000000000000000000000000000000000000000000000000815260040161188b906127a7565b60405180910390fd5b6118a18484848403611651565b5b50505050565b600073ffffffffffffffffffffffffffffffffffffffff168373ffffffffffffffffffffffffffffffffffffffff161415611918576040517f08c379a000000000000000000000000000000000000000000000000000000000815260040161190f90612827565b60405180910390fd5b600073ffffffffffffffffffffffffffffffffffffffff168273ffffffffffffffffffffffffffffffffffffffff161415611988576040517f08c379a000000000000000000000000000000000000000000000000000000000815260040161197f906126a7565b60405180910390fd5b611993838383611e79565b6000600260008573ffffffffffffffffffffffffffffffffffffffff1673ffffffffffffffffffffffffffffffffffffffff16815260200190815260200160002054905081811015611a1a576040517f08c379a0000000000000000000000000000000000000000000000000000000008152600401611a11906127c7565b60405180910390fd5b818103600260008673ffffffffffffffffffffffffffffffffffffffff1673ffffffffffffffffffffffffffffffffffffffff1681526020019081526020016000208190555081600260008573ffffffffffffffffffffffffffffffffffffffff1673ffffffffffffffffffffffffffffffffffffffff1681526020019081526020016000206000828254611aaf91906129ff565b925050819055508273ffffffffffffffffffffffffffffffffffffffff168473ffffffffffffffffffffffffffffffffffffffff167fddf252ad1be2c89b69c2b068fc378daa952ba7f163c4a11628f55a4df523b3ef84604051611b139190612907565b60405180910390a3611b26848484611f02565b50505050565b6000611b3782610fa0565b905060008114611c0a576000633b9aca0063ffffffff1682600960008673ffffffffffffffffffffffffffffffffffffffff1673ffffffffffffffffffffffffffffffffffffffff16815260200190815260200160002054600854611b9c9190612ae0565b611ba69190612a86565b611bb09190612a55565b905080600a60008573ffffffffffffffffffffffffffffffffffffffff1673ffffffffffffffffffffffffffffffffffffffff1681526020019081526020016000206000828254611c0191906129ff565b92505081905550505b600854600960008473ffffffffffffffffffffffffffffffffffffffff1673ffffffffffffffffffffffffffffffffffffffff168152602001908152602001600020819055505050565b600073ffffffffffffffffffffffffffffffffffffffff168273ffffffffffffffffffffffffffffffffffffffff161415611cc4576040517f08c379a0000000000000000000000000000000000000000000000000000000008152600401611cbb906128e7565b60405180910390fd5b611cd060008383611e79565b8060046000828254611ce291906129ff565b9250508190555080600260008473ffffffffffffffffffffffffffffffffffffffff1673ffffffffffffffffffffffffffffffffffffffff1681526020019081526020016000206000828254611d3891906129ff565b925050819055508173ffffffffffffffffffffffffffffffffffffffff16600073ffffffffffffffffffffffffffffffffffffffff167fddf252ad1be2c89b69c2b068fc378daa952ba7f163c4a11628f55a4df523b3ef83604051611d9d9190612907565b60405180910390a3611db160008383611f02565b5050565b60008060009054906101000a900473ffffffffffffffffffffffffffffffffffffffff169050816000806101000a81548173ffffffffffffffffffffffffffffffffffffffff021916908373ffffffffffffffffffffffffffffffffffffffff1602179055508173ffffffffffffffffffffffffffffffffffffffff168173ffffffffffffffffffffffffffffffffffffffff167f8be0079c531659141344cd1fd0a4f28419497f9722a3daafe3b4186f6b6457e060405160405180910390a35050565b600073ffffffffffffffffffffffffffffffffffffffff168373ffffffffffffffffffffffffffffffffffffffff161480611ee05750600073ffffffffffffffffffffffffffffffffffffffff168273ffffffffffffffffffffffffffffffffffffffff16145b15611eea57611efd565b611ef382611b2c565b611efc83611b2c565b5b505050565b505050565b6040518060600160405280600073ffffffffffffffffffffffffffffffffffffffff16815260200160008152602001606081525090565b828054828255906000526020600020908101928215611f7a579160200282015b82811115611f79578251825591602001919060010190611f5e565b5b509050611f879190611f8b565b5090565b5b80821115611fa4576000816000905550600101611f8c565b5090565b600081359050611fb7816130d4565b92915050565b60008083601f840112611fcf57600080fd5b8235905067ffffffffffffffff811115611fe857600080fd5b60208301915083602082028301111561200057600080fd5b9250929050565b600081359050612016816130eb565b92915050565b60006020828403121561202e57600080fd5b600061203c84828501611fa8565b91505092915050565b6000806040838503121561205857600080fd5b600061206685828601611fa8565b925050602061207785828601611fa8565b9150509250929050565b60008060006060848603121561209657600080fd5b60006120a486828701611fa8565b93505060206120b586828701611fa8565b92505060406120c686828701612007565b9150509250925092565b600080604083850312156120e357600080fd5b60006120f185828601611fa8565b925050602061210285828601612007565b9150509250929050565b6000806020838503121561211f57600080fd5b600083013567ffffffffffffffff81111561213957600080fd5b61214585828601611fbd565b92509250509250929050565b60006020828403121561216357600080fd5b600061217184828501612007565b91505092915050565b6000612186838361259b565b905092915050565b600061219a83836125eb565b60208301905092915050565b6121af81612b14565b82525050565b6121be81612b14565b82525050565b60006121cf82612986565b6121d981856129c1565b9350836020820285016121eb85612966565b8060005b858110156122275784840389528151612208858261217a565b9450612213836129a7565b925060208a019950506001810190506121ef565b50829750879550505050505092915050565b600061224482612991565b61224e81856129d2565b935061225983612976565b8060005b8381101561228a578151612271888261218e565b975061227c836129b4565b92505060018101905061225d565b5085935050505092915050565b6122a081612b26565b82525050565b60006122b18261299c565b6122bb81856129ee565b93506122cb818560208601612b69565b6122d481612c85565b840191505092915050565b60006122ec6023836129ee565b91506122f782612c96565b604082019050919050565b600061230f601b836129ee565b915061231a82612ce5565b602082019050919050565b60006123326010836129ee565b915061233d82612d0e565b602082019050919050565b60006123556013836129ee565b915061236082612d37565b602082019050919050565b6000612378601f836129ee565b915061238382612d60565b602082019050919050565b600061239b6026836129ee565b91506123a682612d89565b604082019050919050565b60006123be6022836129ee565b91506123c982612dd8565b604082019050919050565b60006123e1601c836129ee565b91506123ec82612e27565b602082019050919050565b6000612404601d836129ee565b915061240f82612e50565b602082019050919050565b60006124276026836129ee565b915061243282612e79565b604082019050919050565b600061244a6020836129ee565b915061245582612ec8565b602082019050919050565b600061246d601b836129ee565b915061247882612ef1565b602082019050919050565b60006124906025836129ee565b915061249b82612f1a565b604082019050919050565b60006124b36019836129ee565b91506124be82612f69565b602082019050919050565b60006124d66000836129e3565b91506124e182612f92565b600082019050919050565b60006124f96024836129ee565b915061250482612f95565b604082019050919050565b600061251c602b836129ee565b915061252782612fe4565b604082019050919050565b600061253f601f836129ee565b915061254a82613033565b602082019050919050565b60006125626025836129ee565b915061256d8261305c565b604082019050919050565b6000612585601f836129ee565b9150612590826130ab565b602082019050919050565b60006060830160008301516125b360008601826121a6565b5060208301516125c660208601826125eb565b50604083015184820360408601526125de8282612239565b9150508091505092915050565b6125f481612b52565b82525050565b61260381612b52565b82525050565b61261281612b5c565b82525050565b6000612623826124c9565b9150819050919050565b600060208201905061264260008301846121b5565b92915050565b6000602082019050818103600083015261266281846121c4565b905092915050565b600060208201905061267f6000830184612297565b92915050565b6000602082019050818103600083015261269f81846122a6565b905092915050565b600060208201905081810360008301526126c0816122df565b9050919050565b600060208201905081810360008301526126e081612302565b9050919050565b6000602082019050818103600083015261270081612325565b9050919050565b6000602082019050818103600083015261272081612348565b9050919050565b600060208201905081810360008301526127408161236b565b9050919050565b600060208201905081810360008301526127608161238e565b9050919050565b60006020820190508181036000830152612780816123b1565b9050919050565b600060208201905081810360008301526127a0816123d4565b9050919050565b600060208201905081810360008301526127c0816123f7565b9050919050565b600060208201905081810360008301526127e08161241a565b9050919050565b600060208201905081810360008301526128008161243d565b9050919050565b6000602082019050818103600083015261282081612460565b9050919050565b6000602082019050818103600083015261284081612483565b9050919050565b60006020820190508181036000830152612860816124a6565b9050919050565b60006020820190508181036000830152612880816124ec565b9050919050565b600060208201905081810360008301526128a08161250f565b9050919050565b600060208201905081810360008301526128c081612532565b9050919050565b600060208201905081810360008301526128e081612555565b9050919050565b6000602082019050818103600083015261290081612578565b9050919050565b600060208201905061291c60008301846125fa565b92915050565b600060408201905061293760008301856125fa565b61294460208301846125fa565b9392505050565b60006020820190506129606000830184612609565b92915050565b6000819050602082019050919050565b6000819050602082019050919050565b600081519050919050565b600081519050919050565b600081519050919050565b6000602082019050919050565b6000602082019050919050565b600082825260208201905092915050565b600082825260208201905092915050565b600081905092915050565b600082825260208201905092915050565b6000612a0a82612b52565b9150612a1583612b52565b9250827fffffffffffffffffffffffffffffffffffffffffffffffffffffffffffffffff03821115612a4a57612a49612bf8565b5b828201905092915050565b6000612a6082612b52565b9150612a6b83612b52565b925082612a7b57612a7a612c27565b5b828204905092915050565b6000612a9182612b52565b9150612a9c83612b52565b9250817fffffffffffffffffffffffffffffffffffffffffffffffffffffffffffffffff0483118215151615612ad557612ad4612bf8565b5b828202905092915050565b6000612aeb82612b52565b9150612af683612b52565b925082821015612b0957612b08612bf8565b5b828203905092915050565b6000612b1f82612b32565b9050919050565b60008115159050919050565b600073ffffffffffffffffffffffffffffffffffffffff82169050919050565b6000819050919050565b600060ff82169050919050565b60005b83811015612b87578082015181840152602081019050612b6c565b83811115612b96576000848401525b50505050565b60006002820490506001821680612bb457607f821691505b60208210811415612bc857612bc7612c56565b5b50919050565b6000612bd982612b5c565b915060ff821415612bed57612bec612bf8565b5b600182019050919050565b7f4e487b7100000000000000000000000000000000000000000000000000000000600052601160045260246000fd5b7f4e487b7100000000000000000000000000000000000000000000000000000000600052601260045260246000fd5b7f4e487b7100000000000000000000000000000000000000000000000000000000600052602260045260246000fd5b6000601f19601f8301169050919050565b7f45524332303a207472616e7366657220746f20746865207a65726f206164647260008201527f6573730000000000000000000000000000000000000000000000000000000000602082015250565b7f426f6f6b696e67207265717569726573206d6f72652065746865720000000000600082015250565b7f4e6f20746f6b656e73206d696e74656400000000000000000000000000000000600082015250565b7f4461746520616c726561647920626f6f6b656400000000000000000000000000600082015250565b7f57656233626e623a20436f756c64206e6f742077697468647261772065746800600082015250565b7f4f776e61626c653a206e6577206f776e657220697320746865207a65726f206160008201527f6464726573730000000000000000000000000000000000000000000000000000602082015250565b7f45524332303a20617070726f766520746f20746865207a65726f20616464726560008201527f7373000000000000000000000000000000000000000000000000000000000000602082015250565b7f436f6e74726163742069732063757272656e746c79206c6f636b656400000000600082015250565b7f45524332303a20696e73756666696369656e7420616c6c6f77616e6365000000600082015250565b7f45524332303a207472616e7366657220616d6f756e742065786365656473206260008201527f616c616e63650000000000000000000000000000000000000000000000000000602082015250565b7f4f776e61626c653a2063616c6c6572206973206e6f7420746865206f776e6572600082015250565b7f416d6f756e7420737572706173736573206d617820737570706c790000000000600082015250565b7f45524332303a207472616e736665722066726f6d20746865207a65726f20616460008201527f6472657373000000000000000000000000000000000000000000000000000000602082015250565b7f4d617820626f6f6b696e67206461797320657863656564656400000000000000600082015250565b50565b7f45524332303a20617070726f76652066726f6d20746865207a65726f2061646460008201527f7265737300000000000000000000000000000000000000000000000000000000602082015250565b7f57656233626e623a2063616c6c657220686173206e6f206469766964656e647360008201527f206f722063726564697473000000000000000000000000000000000000000000602082015250565b7f5265656e7472616e637947756172643a207265656e7472616e742063616c6c00600082015250565b7f45524332303a2064656372656173656420616c6c6f77616e63652062656c6f7760008201527f207a65726f000000000000000000000000000000000000000000000000000000602082015250565b7f45524332303a206d696e7420746f20746865207a65726f206164647265737300600082015250565b6130dd81612b14565b81146130e857600080fd5b50565b6130f481612b52565b81146130ff57600080fd5b5056fea26469706673582212206afd9e4b6e3ac8661c790f0f00db46ba6a8c73f143b563f468569fbdf510f89164736f6c63430008040033",
  "linkReferences": {},
  "deployedLinkReferences": {}
}