{
  "_format": "hh-sol-artifact-1",
  "contractName": "Web3bnb",
  "sourceName": "ethereum/contracts/Web3bnb.sol",
  "abi": [
    {
      "inputs": [
        {
          "internalType": "string",
          "name": "name_",
          "type": "string"
        },
        {
          "internalType": "string",
          "name": "symbol_",
          "type": "string"
        }
      ],
      "stateMutability": "nonpayable",
      "type": "constructor"
    },
    {
      "anonymous": false,
      "inputs": [
        {
          "indexed": true,
          "internalType": "address",
          "name": "owner",
          "type": "address"
        },
        {
          "indexed": true,
          "internalType": "address",
          "name": "spender",
          "type": "address"
        },
        {
          "indexed": false,
          "internalType": "uint256",
          "name": "value",
          "type": "uint256"
        }
      ],
      "name": "Approval",
      "type": "event"
    },
    {
      "anonymous": false,
      "inputs": [
        {
          "indexed": false,
          "internalType": "uint256",
          "name": "amount",
          "type": "uint256"
        },
        {
          "indexed": false,
          "internalType": "uint256",
          "name": "dividendPerToken",
          "type": "uint256"
        }
      ],
      "name": "FundsReceived",
      "type": "event"
    },
    {
      "anonymous": false,
      "inputs": [
        {
          "indexed": true,
          "internalType": "address",
          "name": "previousOwner",
          "type": "address"
        },
        {
          "indexed": true,
          "internalType": "address",
          "name": "newOwner",
          "type": "address"
        }
      ],
      "name": "OwnershipTransferred",
      "type": "event"
    },
    {
      "anonymous": false,
      "inputs": [
        {
          "indexed": true,
          "internalType": "address",
          "name": "from",
          "type": "address"
        },
        {
          "indexed": true,
          "internalType": "address",
          "name": "to",
          "type": "address"
        },
        {
          "indexed": false,
          "internalType": "uint256",
          "name": "value",
          "type": "uint256"
        }
      ],
      "name": "Transfer",
      "type": "event"
    },
    {
      "inputs": [],
      "name": "MAX_SUPPLY",
      "outputs": [
        {
          "internalType": "uint256",
          "name": "",
          "type": "uint256"
        }
      ],
      "stateMutability": "view",
      "type": "function"
    },
    {
      "inputs": [
        {
          "internalType": "address",
          "name": "owner",
          "type": "address"
        },
        {
          "internalType": "address",
          "name": "spender",
          "type": "address"
        }
      ],
      "name": "allowance",
      "outputs": [
        {
          "internalType": "uint256",
          "name": "",
          "type": "uint256"
        }
      ],
      "stateMutability": "view",
      "type": "function"
    },
    {
      "inputs": [
        {
          "internalType": "address",
          "name": "spender",
          "type": "address"
        },
        {
          "internalType": "uint256",
          "name": "amount",
          "type": "uint256"
        }
      ],
      "name": "approve",
      "outputs": [
        {
          "internalType": "bool",
          "name": "",
          "type": "bool"
        }
      ],
      "stateMutability": "nonpayable",
      "type": "function"
    },
    {
      "inputs": [
        {
          "internalType": "address",
          "name": "account",
          "type": "address"
        }
      ],
      "name": "balanceOf",
      "outputs": [
        {
          "internalType": "uint256",
          "name": "",
          "type": "uint256"
        }
      ],
      "stateMutability": "view",
      "type": "function"
    },
    {
      "inputs": [
        {
          "internalType": "uint256[]",
          "name": "dates",
          "type": "uint256[]"
        }
      ],
      "name": "createBooking",
      "outputs": [],
      "stateMutability": "payable",
      "type": "function"
    },
    {
      "inputs": [],
      "name": "decimals",
      "outputs": [
        {
          "internalType": "uint8",
          "name": "",
          "type": "uint8"
        }
      ],
      "stateMutability": "view",
      "type": "function"
    },
    {
      "inputs": [
        {
          "internalType": "address",
          "name": "spender",
          "type": "address"
        },
        {
          "internalType": "uint256",
          "name": "subtractedValue",
          "type": "uint256"
        }
      ],
      "name": "decreaseAllowance",
      "outputs": [
        {
          "internalType": "bool",
          "name": "",
          "type": "bool"
        }
      ],
      "stateMutability": "nonpayable",
      "type": "function"
    },
    {
      "inputs": [],
      "name": "emergencyWithdraw",
      "outputs": [],
      "stateMutability": "nonpayable",
      "type": "function"
    },
    {
      "inputs": [],
      "name": "getBookings",
      "outputs": [
        {
          "components": [
            {
              "internalType": "address",
              "name": "renter",
              "type": "address"
            },
            {
              "internalType": "uint256",
              "name": "amountPaid",
              "type": "uint256"
            },
            {
              "internalType": "uint256[]",
              "name": "dates",
              "type": "uint256[]"
            }
          ],
          "internalType": "struct Web3bnb.Booking[]",
          "name": "",
          "type": "tuple[]"
        }
      ],
      "stateMutability": "view",
      "type": "function"
    },
    {
      "inputs": [],
      "name": "getRate",
      "outputs": [
        {
          "internalType": "uint256",
          "name": "",
          "type": "uint256"
        }
      ],
      "stateMutability": "view",
      "type": "function"
    },
    {
      "inputs": [
        {
          "internalType": "address",
          "name": "spender",
          "type": "address"
        },
        {
          "internalType": "uint256",
          "name": "addedValue",
          "type": "uint256"
        }
      ],
      "name": "increaseAllowance",
      "outputs": [
        {
          "internalType": "bool",
          "name": "",
          "type": "bool"
        }
      ],
      "stateMutability": "nonpayable",
      "type": "function"
    },
    {
      "inputs": [],
      "name": "locked",
      "outputs": [
        {
          "internalType": "bool",
          "name": "",
          "type": "bool"
        }
      ],
      "stateMutability": "view",
      "type": "function"
    },
    {
      "inputs": [],
      "name": "maxSupply",
      "outputs": [
        {
          "internalType": "uint256",
          "name": "",
          "type": "uint256"
        }
      ],
      "stateMutability": "pure",
      "type": "function"
    },
    {
      "inputs": [
        {
          "internalType": "address",
          "name": "to_",
          "type": "address"
        },
        {
          "internalType": "uint256",
          "name": "amount_",
          "type": "uint256"
        }
      ],
      "name": "mint",
      "outputs": [],
      "stateMutability": "nonpayable",
      "type": "function"
    },
    {
      "inputs": [],
      "name": "name",
      "outputs": [
        {
          "internalType": "string",
          "name": "",
          "type": "string"
        }
      ],
      "stateMutability": "view",
      "type": "function"
    },
    {
      "inputs": [],
      "name": "owner",
      "outputs": [
        {
          "internalType": "address",
          "name": "",
          "type": "address"
        }
      ],
      "stateMutability": "view",
      "type": "function"
    },
    {
      "inputs": [],
      "name": "renounceOwnership",
      "outputs": [],
      "stateMutability": "nonpayable",
      "type": "function"
    },
    {
      "inputs": [
        {
          "internalType": "uint256",
          "name": "rate_",
          "type": "uint256"
        }
      ],
      "name": "setRate",
      "outputs": [],
      "stateMutability": "nonpayable",
      "type": "function"
    },
    {
      "inputs": [],
      "name": "symbol",
      "outputs": [
        {
          "internalType": "string",
          "name": "",
          "type": "string"
        }
      ],
      "stateMutability": "view",
      "type": "function"
    },
    {
      "inputs": [],
      "name": "toggleLock",
      "outputs": [],
      "stateMutability": "nonpayable",
      "type": "function"
    },
    {
      "inputs": [],
      "name": "totalSupply",
      "outputs": [
        {
          "internalType": "uint256",
          "name": "",
          "type": "uint256"
        }
      ],
      "stateMutability": "view",
      "type": "function"
    },
    {
      "inputs": [
        {
          "internalType": "address",
          "name": "to",
          "type": "address"
        },
        {
          "internalType": "uint256",
          "name": "amount",
          "type": "uint256"
        }
      ],
      "name": "transfer",
      "outputs": [
        {
          "internalType": "bool",
          "name": "",
          "type": "bool"
        }
      ],
      "stateMutability": "nonpayable",
      "type": "function"
    },
    {
      "inputs": [
        {
          "internalType": "address",
          "name": "from",
          "type": "address"
        },
        {
          "internalType": "address",
          "name": "to",
          "type": "address"
        },
        {
          "internalType": "uint256",
          "name": "amount",
          "type": "uint256"
        }
      ],
      "name": "transferFrom",
      "outputs": [
        {
          "internalType": "bool",
          "name": "",
          "type": "bool"
        }
      ],
      "stateMutability": "nonpayable",
      "type": "function"
    },
    {
      "inputs": [
        {
          "internalType": "address",
          "name": "newOwner",
          "type": "address"
        }
      ],
      "name": "transferOwnership",
      "outputs": [],
      "stateMutability": "nonpayable",
      "type": "function"
    },
    {
      "inputs": [],
      "name": "withdraw",
      "outputs": [],
      "stateMutability": "nonpayable",
      "type": "function"
    },
    {
      "stateMutability": "payable",
      "type": "receive"
    }
  ],
  "bytecode": "0x60806040523480156200001157600080fd5b5060405162003615380380620036158339818101604052810190620000379190620002a5565b8181620000596200004d620000b760201b60201c565b620000bf60201b60201c565b6001808190555081600590805190602001906200007892919062000183565b5080600690805190602001906200009192919062000183565b5050506001600b60006101000a81548160ff021916908315150217905550505062000488565b600033905090565b60008060009054906101000a900473ffffffffffffffffffffffffffffffffffffffff169050816000806101000a81548173ffffffffffffffffffffffffffffffffffffffff021916908373ffffffffffffffffffffffffffffffffffffffff1602179055508173ffffffffffffffffffffffffffffffffffffffff168173ffffffffffffffffffffffffffffffffffffffff167f8be0079c531659141344cd1fd0a4f28419497f9722a3daafe3b4186f6b6457e060405160405180910390a35050565b8280546200019190620003ad565b90600052602060002090601f016020900481019282620001b5576000855562000201565b82601f10620001d057805160ff191683800117855562000201565b8280016001018555821562000201579182015b8281111562000200578251825591602001919060010190620001e3565b5b50905062000210919062000214565b5090565b5b808211156200022f57600081600090555060010162000215565b5090565b60006200024a620002448462000341565b62000318565b9050828152602081018484840111156200026357600080fd5b6200027084828562000377565b509392505050565b600082601f8301126200028a57600080fd5b81516200029c84826020860162000233565b91505092915050565b60008060408385031215620002b957600080fd5b600083015167ffffffffffffffff811115620002d457600080fd5b620002e28582860162000278565b925050602083015167ffffffffffffffff8111156200030057600080fd5b6200030e8582860162000278565b9150509250929050565b60006200032462000337565b9050620003328282620003e3565b919050565b6000604051905090565b600067ffffffffffffffff8211156200035f576200035e62000448565b5b6200036a8262000477565b9050602081019050919050565b60005b83811015620003975780820151818401526020810190506200037a565b83811115620003a7576000848401525b50505050565b60006002820490506001821680620003c657607f821691505b60208210811415620003dd57620003dc62000419565b5b50919050565b620003ee8262000477565b810181811067ffffffffffffffff8211171562000410576200040f62000448565b5b80604052505050565b7f4e487b7100000000000000000000000000000000000000000000000000000000600052602260045260246000fd5b7f4e487b7100000000000000000000000000000000000000000000000000000000600052604160045260246000fd5b6000601f19601f8301169050919050565b61317d80620004986000396000f3fe60806040526004361061016a5760003560e01c806370a08231116100d1578063a9059cbb1161008a578063db2e21bc11610064578063db2e21bc14610537578063dd62ed3e1461054e578063f2fde38b1461058b578063ff9413d8146105b45761017a565b8063a9059cbb146104a4578063cf309012146104e1578063d5abeb011461050c5761017a565b806370a0823114610392578063715018a6146103cf5780638da5cb5b146103e6578063955c84201461041157806395d89b411461043c578063a457c2d7146104675761017a565b806334fcf4371161012357806334fcf437146102a557806339509351146102ce5780633ccfd60b1461030b57806340c10f19146103225780634a7a12471461034b578063679aefce146103675761017a565b806306fdde031461017f578063095ea7b3146101aa57806318160ddd146101e757806323b872dd14610212578063313ce5671461024f57806332cb6b0c1461027a5761017a565b3661017a57610178346105cb565b005b600080fd5b34801561018b57600080fd5b50610194610694565b6040516101a191906126ca565b60405180910390f35b3480156101b657600080fd5b506101d160048036038101906101cc9190612115565b610726565b6040516101de91906126af565b60405180910390f35b3480156101f357600080fd5b506101fc610749565b604051610209919061294c565b60405180910390f35b34801561021e57600080fd5b50610239600480360381019061023491906120c6565b610753565b60405161024691906126af565b60405180910390f35b34801561025b57600080fd5b50610264610782565b6040516102719190612990565b60405180910390f35b34801561028657600080fd5b5061028f61078b565b60405161029c919061294c565b60405180910390f35b3480156102b157600080fd5b506102cc60048036038101906102c79190612196565b610792565b005b3480156102da57600080fd5b506102f560048036038101906102f09190612115565b610818565b60405161030291906126af565b60405180910390f35b34801561031757600080fd5b5061032061084f565b005b34801561032e57600080fd5b5061034960048036038101906103449190612115565b610b69565b005b61036560048036038101906103609190612151565b610c56565b005b34801561037357600080fd5b5061037c610fd0565b604051610389919061294c565b60405180910390f35b34801561039e57600080fd5b506103b960048036038101906103b49190612061565b610fda565b6040516103c6919061294c565b60405180910390f35b3480156103db57600080fd5b506103e4611023565b005b3480156103f257600080fd5b506103fb6110ab565b6040516104089190612672565b60405180910390f35b34801561041d57600080fd5b506104266110d4565b604051610433919061268d565b60405180910390f35b34801561044857600080fd5b506104516111eb565b60405161045e91906126ca565b60405180910390f35b34801561047357600080fd5b5061048e60048036038101906104899190612115565b61127d565b60405161049b91906126af565b60405180910390f35b3480156104b057600080fd5b506104cb60048036038101906104c69190612115565b6112f4565b6040516104d891906126af565b60405180910390f35b3480156104ed57600080fd5b506104f6611317565b60405161050391906126af565b60405180910390f35b34801561051857600080fd5b5061052161132a565b60405161052e919061294c565b60405180910390f35b34801561054357600080fd5b5061054c611335565b005b34801561055a57600080fd5b506105756004803603810190610570919061208a565b611467565b604051610582919061294c565b60405180910390f35b34801561059757600080fd5b506105b260048036038101906105ad9190612061565b6114ee565b005b3480156105c057600080fd5b506105c96115e6565b005b60006105d5610749565b1415610616576040517f08c379a000000000000000000000000000000000000000000000000000000000815260040161060d9061272c565b60405180910390fd5b61061e610749565b633b9aca0063ffffffff16826106349190612acb565b61063e9190612a9a565b6008600082825461064f9190612a44565b925050819055507f063d07ee72a7483b8e07ca09054bb686775c5c030f945dde3823a5257a0a93eb81600854604051610689929190612967565b60405180910390a150565b6060600580546106a390612be1565b80601f01602080910402602001604051908101604052809291908181526020018280546106cf90612be1565b801561071c5780601f106106f15761010080835404028352916020019161071c565b820191906000526020600020905b8154815290600101906020018083116106ff57829003601f168201915b5050505050905090565b60008061073161168e565b905061073e818585611696565b600191505092915050565b6000600454905090565b60008061075e61168e565b905061076b858285611861565b6107768585856118ed565b60019150509392505050565b60006012905090565b620f424081565b61079a61168e565b73ffffffffffffffffffffffffffffffffffffffff166107b86110ab565b73ffffffffffffffffffffffffffffffffffffffff161461080e576040517f08c379a00000000000000000000000000000000000000000000000000000000081526004016108059061282c565b60405180910390fd5b8060078190555050565b60008061082361168e565b90506108448185856108358589611467565b61083f9190612a44565b611696565b600191505092915050565b60026001541415610895576040517f08c379a000000000000000000000000000000000000000000000000000000000815260040161088c906128ec565b60405180910390fd5b6002600181905550600b60009054906101000a900460ff16156108ed576040517f08c379a00000000000000000000000000000000000000000000000000000000081526004016108e4906127cc565b60405180910390fd5b60006108ff6108fa61168e565b610fda565b90506000633b9aca0063ffffffff16826009600061091b61168e565b73ffffffffffffffffffffffffffffffffffffffff1673ffffffffffffffffffffffffffffffffffffffff168152602001908152602001600020546008546109639190612b25565b61096d9190612acb565b6109779190612a9a565b9050600a600061098561168e565b73ffffffffffffffffffffffffffffffffffffffff1673ffffffffffffffffffffffffffffffffffffffff16815260200190815260200160002054816109cb9190612a44565b90506000811415610a11576040517f08c379a0000000000000000000000000000000000000000000000000000000008152600401610a08906128cc565b60405180910390fd5b6000600a6000610a1f61168e565b73ffffffffffffffffffffffffffffffffffffffff1673ffffffffffffffffffffffffffffffffffffffff1681526020019081526020016000208190555060085460096000610a6c61168e565b73ffffffffffffffffffffffffffffffffffffffff1673ffffffffffffffffffffffffffffffffffffffff168152602001908152602001600020819055506000610ab461168e565b73ffffffffffffffffffffffffffffffffffffffff1682604051610ad79061265d565b60006040518083038185875af1925050503d8060008114610b14576040519150601f19603f3d011682016040523d82523d6000602084013e610b19565b606091505b5050905080610b5d576040517f08c379a0000000000000000000000000000000000000000000000000000000008152600401610b549061276c565b60405180910390fd5b50505060018081905550565b610b7161168e565b73ffffffffffffffffffffffffffffffffffffffff16610b8f6110ab565b73ffffffffffffffffffffffffffffffffffffffff1614610be5576040517f08c379a0000000000000000000000000000000000000000000000000000000008152600401610bdc9061282c565b60405180910390fd5b80620f4240610bf2610749565b82610bfd9190612a44565b1115610c3e576040517f08c379a0000000000000000000000000000000000000000000000000000000008152600401610c359061284c565b60405180910390fd5b610c4783611b71565b610c518383611c99565b505050565b600760ff16828290501115610ca0576040517f08c379a0000000000000000000000000000000000000000000000000000000008152600401610c979061288c565b60405180910390fd5b60005b828290508160ff161015610e3a57600073ffffffffffffffffffffffffffffffffffffffff16600d600085858560ff16818110610d09577f4e487b7100000000000000000000000000000000000000000000000000000000600052603260045260246000fd5b90506020020135815260200190815260200160002060009054906101000a900473ffffffffffffffffffffffffffffffffffffffff1673ffffffffffffffffffffffffffffffffffffffff1614610d95576040517f08c379a0000000000000000000000000000000000000000000000000000000008152600401610d8c9061274c565b60405180910390fd5b33600d600085858560ff16818110610dd6577f4e487b7100000000000000000000000000000000000000000000000000000000600052603260045260246000fd5b90506020020135815260200190815260200160002060006101000a81548173ffffffffffffffffffffffffffffffffffffffff021916908373ffffffffffffffffffffffffffffffffffffffff16021790555080610e3390612c13565b9050610ca3565b50610e43611f4c565b60075483839050610e549190612acb565b81602001818152505033816000019073ffffffffffffffffffffffffffffffffffffffff16908173ffffffffffffffffffffffffffffffffffffffff1681525050828280806020026020016040519081016040528093929190818152602001838360200280828437600081840152601f19601f8201169050808301925050505050505081604001819052508060200151341015610f26576040517f08c379a0000000000000000000000000000000000000000000000000000000008152600401610f1d9061270c565b60405180910390fd5b610f2f346105cb565b600c81908060018154018082558091505060019003906000526020600020906003020160009091909190915060008201518160000160006101000a81548173ffffffffffffffffffffffffffffffffffffffff021916908373ffffffffffffffffffffffffffffffffffffffff160217905550602082015181600101556040820151816002019080519060200190610fc8929190611f83565b505050505050565b6000600754905090565b6000600260008373ffffffffffffffffffffffffffffffffffffffff1673ffffffffffffffffffffffffffffffffffffffff168152602001908152602001600020549050919050565b61102b61168e565b73ffffffffffffffffffffffffffffffffffffffff166110496110ab565b73ffffffffffffffffffffffffffffffffffffffff161461109f576040517f08c379a00000000000000000000000000000000000000000000000000000000081526004016110969061282c565b60405180910390fd5b6110a96000611dfa565b565b60008060009054906101000a900473ffffffffffffffffffffffffffffffffffffffff16905090565b6060600c805480602002602001604051908101604052809291908181526020016000905b828210156111e257838290600052602060002090600302016040518060600160405290816000820160009054906101000a900473ffffffffffffffffffffffffffffffffffffffff1673ffffffffffffffffffffffffffffffffffffffff1673ffffffffffffffffffffffffffffffffffffffff16815260200160018201548152602001600282018054806020026020016040519081016040528092919081815260200182805480156111ca57602002820191906000526020600020905b8154815260200190600101908083116111b6575b505050505081525050815260200190600101906110f8565b50505050905090565b6060600680546111fa90612be1565b80601f016020809104026020016040519081016040528092919081815260200182805461122690612be1565b80156112735780601f1061124857610100808354040283529160200191611273565b820191906000526020600020905b81548152906001019060200180831161125657829003601f168201915b5050505050905090565b60008061128861168e565b905060006112968286611467565b9050838110156112db576040517f08c379a00000000000000000000000000000000000000000000000000000000081526004016112d29061290c565b60405180910390fd5b6112e88286868403611696565b60019250505092915050565b6000806112ff61168e565b905061130c8185856118ed565b600191505092915050565b600b60009054906101000a900460ff1681565b6000620f4240905090565b61133d61168e565b73ffffffffffffffffffffffffffffffffffffffff1661135b6110ab565b73ffffffffffffffffffffffffffffffffffffffff16146113b1576040517f08c379a00000000000000000000000000000000000000000000000000000000081526004016113a89061282c565b60405180910390fd5b60006113bb6110ab565b73ffffffffffffffffffffffffffffffffffffffff16476040516113de9061265d565b60006040518083038185875af1925050503d806000811461141b576040519150601f19603f3d011682016040523d82523d6000602084013e611420565b606091505b5050905080611464576040517f08c379a000000000000000000000000000000000000000000000000000000000815260040161145b9061276c565b60405180910390fd5b50565b6000600360008473ffffffffffffffffffffffffffffffffffffffff1673ffffffffffffffffffffffffffffffffffffffff16815260200190815260200160002060008373ffffffffffffffffffffffffffffffffffffffff1673ffffffffffffffffffffffffffffffffffffffff16815260200190815260200160002054905092915050565b6114f661168e565b73ffffffffffffffffffffffffffffffffffffffff166115146110ab565b73ffffffffffffffffffffffffffffffffffffffff161461156a576040517f08c379a00000000000000000000000000000000000000000000000000000000081526004016115619061282c565b60405180910390fd5b600073ffffffffffffffffffffffffffffffffffffffff168173ffffffffffffffffffffffffffffffffffffffff1614156115da576040517f08c379a00000000000000000000000000000000000000000000000000000000081526004016115d19061278c565b60405180910390fd5b6115e381611dfa565b50565b6115ee61168e565b73ffffffffffffffffffffffffffffffffffffffff1661160c6110ab565b73ffffffffffffffffffffffffffffffffffffffff1614611662576040517f08c379a00000000000000000000000000000000000000000000000000000000081526004016116599061282c565b60405180910390fd5b600b60009054906101000a900460ff1615600b60006101000a81548160ff021916908315150217905550565b600033905090565b600073ffffffffffffffffffffffffffffffffffffffff168373ffffffffffffffffffffffffffffffffffffffff161415611706576040517f08c379a00000000000000000000000000000000000000000000000000000000081526004016116fd906128ac565b60405180910390fd5b600073ffffffffffffffffffffffffffffffffffffffff168273ffffffffffffffffffffffffffffffffffffffff161415611776576040517f08c379a000000000000000000000000000000000000000000000000000000000815260040161176d906127ac565b60405180910390fd5b80600360008573ffffffffffffffffffffffffffffffffffffffff1673ffffffffffffffffffffffffffffffffffffffff16815260200190815260200160002060008473ffffffffffffffffffffffffffffffffffffffff1673ffffffffffffffffffffffffffffffffffffffff168152602001908152602001600020819055508173ffffffffffffffffffffffffffffffffffffffff168373ffffffffffffffffffffffffffffffffffffffff167f8c5be1e5ebec7d5bd14f71427d1e84f3dd0314c0f7b2291e5b200ac8c7c3b92583604051611854919061294c565b60405180910390a3505050565b600061186d8484611467565b90507fffffffffffffffffffffffffffffffffffffffffffffffffffffffffffffffff81146118e757818110156118d9576040517f08c379a00000000000000000000000000000000000000000000000000000000081526004016118d0906127ec565b60405180910390fd5b6118e68484848403611696565b5b50505050565b600073ffffffffffffffffffffffffffffffffffffffff168373ffffffffffffffffffffffffffffffffffffffff16141561195d576040517f08c379a00000000000000000000000000000000000000000000000000000000081526004016119549061286c565b60405180910390fd5b600073ffffffffffffffffffffffffffffffffffffffff168273ffffffffffffffffffffffffffffffffffffffff1614156119cd576040517f08c379a00000000000000000000000000000000000000000000000000000000081526004016119c4906126ec565b60405180910390fd5b6119d8838383611ebe565b6000600260008573ffffffffffffffffffffffffffffffffffffffff1673ffffffffffffffffffffffffffffffffffffffff16815260200190815260200160002054905081811015611a5f576040517f08c379a0000000000000000000000000000000000000000000000000000000008152600401611a569061280c565b60405180910390fd5b818103600260008673ffffffffffffffffffffffffffffffffffffffff1673ffffffffffffffffffffffffffffffffffffffff1681526020019081526020016000208190555081600260008573ffffffffffffffffffffffffffffffffffffffff1673ffffffffffffffffffffffffffffffffffffffff1681526020019081526020016000206000828254611af49190612a44565b925050819055508273ffffffffffffffffffffffffffffffffffffffff168473ffffffffffffffffffffffffffffffffffffffff167fddf252ad1be2c89b69c2b068fc378daa952ba7f163c4a11628f55a4df523b3ef84604051611b58919061294c565b60405180910390a3611b6b848484611f47565b50505050565b6000611b7c82610fda565b905060008114611c4f576000633b9aca0063ffffffff1682600960008673ffffffffffffffffffffffffffffffffffffffff1673ffffffffffffffffffffffffffffffffffffffff16815260200190815260200160002054600854611be19190612b25565b611beb9190612acb565b611bf59190612a9a565b905080600a60008573ffffffffffffffffffffffffffffffffffffffff1673ffffffffffffffffffffffffffffffffffffffff1681526020019081526020016000206000828254611c469190612a44565b92505081905550505b600854600960008473ffffffffffffffffffffffffffffffffffffffff1673ffffffffffffffffffffffffffffffffffffffff168152602001908152602001600020819055505050565b600073ffffffffffffffffffffffffffffffffffffffff168273ffffffffffffffffffffffffffffffffffffffff161415611d09576040517f08c379a0000000000000000000000000000000000000000000000000000000008152600401611d009061292c565b60405180910390fd5b611d1560008383611ebe565b8060046000828254611d279190612a44565b9250508190555080600260008473ffffffffffffffffffffffffffffffffffffffff1673ffffffffffffffffffffffffffffffffffffffff1681526020019081526020016000206000828254611d7d9190612a44565b925050819055508173ffffffffffffffffffffffffffffffffffffffff16600073ffffffffffffffffffffffffffffffffffffffff167fddf252ad1be2c89b69c2b068fc378daa952ba7f163c4a11628f55a4df523b3ef83604051611de2919061294c565b60405180910390a3611df660008383611f47565b5050565b60008060009054906101000a900473ffffffffffffffffffffffffffffffffffffffff169050816000806101000a81548173ffffffffffffffffffffffffffffffffffffffff021916908373ffffffffffffffffffffffffffffffffffffffff1602179055508173ffffffffffffffffffffffffffffffffffffffff168173ffffffffffffffffffffffffffffffffffffffff167f8be0079c531659141344cd1fd0a4f28419497f9722a3daafe3b4186f6b6457e060405160405180910390a35050565b600073ffffffffffffffffffffffffffffffffffffffff168373ffffffffffffffffffffffffffffffffffffffff161480611f255750600073ffffffffffffffffffffffffffffffffffffffff168273ffffffffffffffffffffffffffffffffffffffff16145b15611f2f57611f42565b611f3882611b71565b611f4183611b71565b5b505050565b505050565b6040518060600160405280600073ffffffffffffffffffffffffffffffffffffffff16815260200160008152602001606081525090565b828054828255906000526020600020908101928215611fbf579160200282015b82811115611fbe578251825591602001919060010190611fa3565b5b509050611fcc9190611fd0565b5090565b5b80821115611fe9576000816000905550600101611fd1565b5090565b600081359050611ffc81613119565b92915050565b60008083601f84011261201457600080fd5b8235905067ffffffffffffffff81111561202d57600080fd5b60208301915083602082028301111561204557600080fd5b9250929050565b60008135905061205b81613130565b92915050565b60006020828403121561207357600080fd5b600061208184828501611fed565b91505092915050565b6000806040838503121561209d57600080fd5b60006120ab85828601611fed565b92505060206120bc85828601611fed565b9150509250929050565b6000806000606084860312156120db57600080fd5b60006120e986828701611fed565b93505060206120fa86828701611fed565b925050604061210b8682870161204c565b9150509250925092565b6000806040838503121561212857600080fd5b600061213685828601611fed565b92505060206121478582860161204c565b9150509250929050565b6000806020838503121561216457600080fd5b600083013567ffffffffffffffff81111561217e57600080fd5b61218a85828601612002565b92509250509250929050565b6000602082840312156121a857600080fd5b60006121b68482850161204c565b91505092915050565b60006121cb83836125e0565b905092915050565b60006121df8383612630565b60208301905092915050565b6121f481612b59565b82525050565b61220381612b59565b82525050565b6000612214826129cb565b61221e8185612a06565b935083602082028501612230856129ab565b8060005b8581101561226c578484038952815161224d85826121bf565b9450612258836129ec565b925060208a01995050600181019050612234565b50829750879550505050505092915050565b6000612289826129d6565b6122938185612a17565b935061229e836129bb565b8060005b838110156122cf5781516122b688826121d3565b97506122c1836129f9565b9250506001810190506122a2565b5085935050505092915050565b6122e581612b6b565b82525050565b60006122f6826129e1565b6123008185612a33565b9350612310818560208601612bae565b61231981612cca565b840191505092915050565b6000612331602383612a33565b915061233c82612cdb565b604082019050919050565b6000612354601b83612a33565b915061235f82612d2a565b602082019050919050565b6000612377601083612a33565b915061238282612d53565b602082019050919050565b600061239a601383612a33565b91506123a582612d7c565b602082019050919050565b60006123bd601f83612a33565b91506123c882612da5565b602082019050919050565b60006123e0602683612a33565b91506123eb82612dce565b604082019050919050565b6000612403602283612a33565b915061240e82612e1d565b604082019050919050565b6000612426601c83612a33565b915061243182612e6c565b602082019050919050565b6000612449601d83612a33565b915061245482612e95565b602082019050919050565b600061246c602683612a33565b915061247782612ebe565b604082019050919050565b600061248f602083612a33565b915061249a82612f0d565b602082019050919050565b60006124b2601b83612a33565b91506124bd82612f36565b602082019050919050565b60006124d5602583612a33565b91506124e082612f5f565b604082019050919050565b60006124f8601983612a33565b915061250382612fae565b602082019050919050565b600061251b600083612a28565b915061252682612fd7565b600082019050919050565b600061253e602483612a33565b915061254982612fda565b604082019050919050565b6000612561602b83612a33565b915061256c82613029565b604082019050919050565b6000612584601f83612a33565b915061258f82613078565b602082019050919050565b60006125a7602583612a33565b91506125b2826130a1565b604082019050919050565b60006125ca601f83612a33565b91506125d5826130f0565b602082019050919050565b60006060830160008301516125f860008601826121eb565b50602083015161260b6020860182612630565b5060408301518482036040860152612623828261227e565b9150508091505092915050565b61263981612b97565b82525050565b61264881612b97565b82525050565b61265781612ba1565b82525050565b60006126688261250e565b9150819050919050565b600060208201905061268760008301846121fa565b92915050565b600060208201905081810360008301526126a78184612209565b905092915050565b60006020820190506126c460008301846122dc565b92915050565b600060208201905081810360008301526126e481846122eb565b905092915050565b6000602082019050818103600083015261270581612324565b9050919050565b6000602082019050818103600083015261272581612347565b9050919050565b600060208201905081810360008301526127458161236a565b9050919050565b600060208201905081810360008301526127658161238d565b9050919050565b60006020820190508181036000830152612785816123b0565b9050919050565b600060208201905081810360008301526127a5816123d3565b9050919050565b600060208201905081810360008301526127c5816123f6565b9050919050565b600060208201905081810360008301526127e581612419565b9050919050565b600060208201905081810360008301526128058161243c565b9050919050565b600060208201905081810360008301526128258161245f565b9050919050565b6000602082019050818103600083015261284581612482565b9050919050565b60006020820190508181036000830152612865816124a5565b9050919050565b60006020820190508181036000830152612885816124c8565b9050919050565b600060208201905081810360008301526128a5816124eb565b9050919050565b600060208201905081810360008301526128c581612531565b9050919050565b600060208201905081810360008301526128e581612554565b9050919050565b6000602082019050818103600083015261290581612577565b9050919050565b600060208201905081810360008301526129258161259a565b9050919050565b60006020820190508181036000830152612945816125bd565b9050919050565b6000602082019050612961600083018461263f565b92915050565b600060408201905061297c600083018561263f565b612989602083018461263f565b9392505050565b60006020820190506129a5600083018461264e565b92915050565b6000819050602082019050919050565b6000819050602082019050919050565b600081519050919050565b600081519050919050565b600081519050919050565b6000602082019050919050565b6000602082019050919050565b600082825260208201905092915050565b600082825260208201905092915050565b600081905092915050565b600082825260208201905092915050565b6000612a4f82612b97565b9150612a5a83612b97565b9250827fffffffffffffffffffffffffffffffffffffffffffffffffffffffffffffffff03821115612a8f57612a8e612c3d565b5b828201905092915050565b6000612aa582612b97565b9150612ab083612b97565b925082612ac057612abf612c6c565b5b828204905092915050565b6000612ad682612b97565b9150612ae183612b97565b9250817fffffffffffffffffffffffffffffffffffffffffffffffffffffffffffffffff0483118215151615612b1a57612b19612c3d565b5b828202905092915050565b6000612b3082612b97565b9150612b3b83612b97565b925082821015612b4e57612b4d612c3d565b5b828203905092915050565b6000612b6482612b77565b9050919050565b60008115159050919050565b600073ffffffffffffffffffffffffffffffffffffffff82169050919050565b6000819050919050565b600060ff82169050919050565b60005b83811015612bcc578082015181840152602081019050612bb1565b83811115612bdb576000848401525b50505050565b60006002820490506001821680612bf957607f821691505b60208210811415612c0d57612c0c612c9b565b5b50919050565b6000612c1e82612ba1565b915060ff821415612c3257612c31612c3d565b5b600182019050919050565b7f4e487b7100000000000000000000000000000000000000000000000000000000600052601160045260246000fd5b7f4e487b7100000000000000000000000000000000000000000000000000000000600052601260045260246000fd5b7f4e487b7100000000000000000000000000000000000000000000000000000000600052602260045260246000fd5b6000601f19601f8301169050919050565b7f45524332303a207472616e7366657220746f20746865207a65726f206164647260008201527f6573730000000000000000000000000000000000000000000000000000000000602082015250565b7f426f6f6b696e67207265717569726573206d6f72652065746865720000000000600082015250565b7f4e6f20746f6b656e73206d696e74656400000000000000000000000000000000600082015250565b7f4461746520616c726561647920626f6f6b656400000000000000000000000000600082015250565b7f57656233626e623a20436f756c64206e6f742077697468647261772065746800600082015250565b7f4f776e61626c653a206e6577206f776e657220697320746865207a65726f206160008201527f6464726573730000000000000000000000000000000000000000000000000000602082015250565b7f45524332303a20617070726f766520746f20746865207a65726f20616464726560008201527f7373000000000000000000000000000000000000000000000000000000000000602082015250565b7f436f6e74726163742069732063757272656e746c79206c6f636b656400000000600082015250565b7f45524332303a20696e73756666696369656e7420616c6c6f77616e6365000000600082015250565b7f45524332303a207472616e7366657220616d6f756e742065786365656473206260008201527f616c616e63650000000000000000000000000000000000000000000000000000602082015250565b7f4f776e61626c653a2063616c6c6572206973206e6f7420746865206f776e6572600082015250565b7f416d6f756e7420737572706173736573206d617820737570706c790000000000600082015250565b7f45524332303a207472616e736665722066726f6d20746865207a65726f20616460008201527f6472657373000000000000000000000000000000000000000000000000000000602082015250565b7f4d617820626f6f6b696e67206461797320657863656564656400000000000000600082015250565b50565b7f45524332303a20617070726f76652066726f6d20746865207a65726f2061646460008201527f7265737300000000000000000000000000000000000000000000000000000000602082015250565b7f57656233626e623a2063616c6c657220686173206e6f206469766964656e647360008201527f206f722063726564697473000000000000000000000000000000000000000000602082015250565b7f5265656e7472616e637947756172643a207265656e7472616e742063616c6c00600082015250565b7f45524332303a2064656372656173656420616c6c6f77616e63652062656c6f7760008201527f207a65726f000000000000000000000000000000000000000000000000000000602082015250565b7f45524332303a206d696e7420746f20746865207a65726f206164647265737300600082015250565b61312281612b59565b811461312d57600080fd5b50565b61313981612b97565b811461314457600080fd5b5056fea26469706673582212204f6b93786752ca12e8652786f3e5617703d4909a5e9e663ad37a149c532e8dc664736f6c63430008040033",
  "linkReferences": {},
  "deployedLinkReferences": {}
}