{
  "_format": "hh-sol-artifact-1",
  "contractName": "Web3bnb",
  "sourceName": "ethereum/contracts/Web3bnb.sol",
  "abi": [
    {
      "inputs": [
        {
          "internalType": "string",
          "name": "name_",
          "type": "string"
        },
        {
          "internalType": "string",
          "name": "symbol_",
          "type": "string"
        }
      ],
      "stateMutability": "nonpayable",
      "type": "constructor"
    },
    {
      "anonymous": false,
      "inputs": [
        {
          "indexed": true,
          "internalType": "address",
          "name": "owner",
          "type": "address"
        },
        {
          "indexed": true,
          "internalType": "address",
          "name": "spender",
          "type": "address"
        },
        {
          "indexed": false,
          "internalType": "uint256",
          "name": "value",
          "type": "uint256"
        }
      ],
      "name": "Approval",
      "type": "event"
    },
    {
      "anonymous": false,
      "inputs": [
        {
          "indexed": false,
          "internalType": "uint256",
          "name": "amount",
          "type": "uint256"
        },
        {
          "indexed": false,
          "internalType": "uint256",
          "name": "dividendPerToken",
          "type": "uint256"
        }
      ],
      "name": "FundsReceived",
      "type": "event"
    },
    {
      "anonymous": false,
      "inputs": [
        {
          "indexed": true,
          "internalType": "address",
          "name": "previousOwner",
          "type": "address"
        },
        {
          "indexed": true,
          "internalType": "address",
          "name": "newOwner",
          "type": "address"
        }
      ],
      "name": "OwnershipTransferred",
      "type": "event"
    },
    {
      "anonymous": false,
      "inputs": [
        {
          "indexed": true,
          "internalType": "address",
          "name": "from",
          "type": "address"
        },
        {
          "indexed": true,
          "internalType": "address",
          "name": "to",
          "type": "address"
        },
        {
          "indexed": false,
          "internalType": "uint256",
          "name": "value",
          "type": "uint256"
        }
      ],
      "name": "Transfer",
      "type": "event"
    },
    {
      "inputs": [],
      "name": "MAX_SUPPLY",
      "outputs": [
        {
          "internalType": "uint256",
          "name": "",
          "type": "uint256"
        }
      ],
      "stateMutability": "view",
      "type": "function"
    },
    {
      "inputs": [
        {
          "internalType": "address",
          "name": "owner",
          "type": "address"
        },
        {
          "internalType": "address",
          "name": "spender",
          "type": "address"
        }
      ],
      "name": "allowance",
      "outputs": [
        {
          "internalType": "uint256",
          "name": "",
          "type": "uint256"
        }
      ],
      "stateMutability": "view",
      "type": "function"
    },
    {
      "inputs": [
        {
          "internalType": "address",
          "name": "spender",
          "type": "address"
        },
        {
          "internalType": "uint256",
          "name": "amount",
          "type": "uint256"
        }
      ],
      "name": "approve",
      "outputs": [
        {
          "internalType": "bool",
          "name": "",
          "type": "bool"
        }
      ],
      "stateMutability": "nonpayable",
      "type": "function"
    },
    {
      "inputs": [
        {
          "internalType": "address",
          "name": "account",
          "type": "address"
        }
      ],
      "name": "balanceOf",
      "outputs": [
        {
          "internalType": "uint256",
          "name": "",
          "type": "uint256"
        }
      ],
      "stateMutability": "view",
      "type": "function"
    },
    {
      "inputs": [
        {
          "internalType": "uint256[]",
          "name": "dates",
          "type": "uint256[]"
        }
      ],
      "name": "createBooking",
      "outputs": [],
      "stateMutability": "payable",
      "type": "function"
    },
    {
      "inputs": [],
      "name": "decimals",
      "outputs": [
        {
          "internalType": "uint8",
          "name": "",
          "type": "uint8"
        }
      ],
      "stateMutability": "view",
      "type": "function"
    },
    {
      "inputs": [
        {
          "internalType": "address",
          "name": "spender",
          "type": "address"
        },
        {
          "internalType": "uint256",
          "name": "subtractedValue",
          "type": "uint256"
        }
      ],
      "name": "decreaseAllowance",
      "outputs": [
        {
          "internalType": "bool",
          "name": "",
          "type": "bool"
        }
      ],
      "stateMutability": "nonpayable",
      "type": "function"
    },
    {
      "inputs": [],
      "name": "earnings",
      "outputs": [
        {
          "internalType": "uint256",
          "name": "",
          "type": "uint256"
        }
      ],
      "stateMutability": "view",
      "type": "function"
    },
    {
      "inputs": [],
      "name": "emergencyWithdraw",
      "outputs": [],
      "stateMutability": "nonpayable",
      "type": "function"
    },
    {
      "inputs": [],
      "name": "getBookings",
      "outputs": [
        {
          "components": [
            {
              "internalType": "address",
              "name": "renter",
              "type": "address"
            },
            {
              "internalType": "uint256",
              "name": "amountPaid",
              "type": "uint256"
            },
            {
              "internalType": "uint256[]",
              "name": "dates",
              "type": "uint256[]"
            }
          ],
          "internalType": "struct Web3bnb.Booking[]",
          "name": "",
          "type": "tuple[]"
        }
      ],
      "stateMutability": "view",
      "type": "function"
    },
    {
      "inputs": [],
      "name": "getRate",
      "outputs": [
        {
          "internalType": "uint256",
          "name": "",
          "type": "uint256"
        }
      ],
      "stateMutability": "view",
      "type": "function"
    },
    {
      "inputs": [
        {
          "internalType": "address",
          "name": "spender",
          "type": "address"
        },
        {
          "internalType": "uint256",
          "name": "addedValue",
          "type": "uint256"
        }
      ],
      "name": "increaseAllowance",
      "outputs": [
        {
          "internalType": "bool",
          "name": "",
          "type": "bool"
        }
      ],
      "stateMutability": "nonpayable",
      "type": "function"
    },
    {
      "inputs": [],
      "name": "locked",
      "outputs": [
        {
          "internalType": "bool",
          "name": "",
          "type": "bool"
        }
      ],
      "stateMutability": "view",
      "type": "function"
    },
    {
      "inputs": [],
      "name": "maxSupply",
      "outputs": [
        {
          "internalType": "uint256",
          "name": "",
          "type": "uint256"
        }
      ],
      "stateMutability": "pure",
      "type": "function"
    },
    {
      "inputs": [
        {
          "internalType": "address",
          "name": "to_",
          "type": "address"
        },
        {
          "internalType": "uint256",
          "name": "amount_",
          "type": "uint256"
        }
      ],
      "name": "mint",
      "outputs": [],
      "stateMutability": "nonpayable",
      "type": "function"
    },
    {
      "inputs": [],
      "name": "name",
      "outputs": [
        {
          "internalType": "string",
          "name": "",
          "type": "string"
        }
      ],
      "stateMutability": "view",
      "type": "function"
    },
    {
      "inputs": [],
      "name": "owner",
      "outputs": [
        {
          "internalType": "address",
          "name": "",
          "type": "address"
        }
      ],
      "stateMutability": "view",
      "type": "function"
    },
    {
      "inputs": [],
      "name": "renounceOwnership",
      "outputs": [],
      "stateMutability": "nonpayable",
      "type": "function"
    },
    {
      "inputs": [
        {
          "internalType": "uint256",
          "name": "rate_",
          "type": "uint256"
        }
      ],
      "name": "setRate",
      "outputs": [],
      "stateMutability": "nonpayable",
      "type": "function"
    },
    {
      "inputs": [],
      "name": "symbol",
      "outputs": [
        {
          "internalType": "string",
          "name": "",
          "type": "string"
        }
      ],
      "stateMutability": "view",
      "type": "function"
    },
    {
      "inputs": [],
      "name": "toggleLock",
      "outputs": [],
      "stateMutability": "nonpayable",
      "type": "function"
    },
    {
      "inputs": [],
      "name": "totalSupply",
      "outputs": [
        {
          "internalType": "uint256",
          "name": "",
          "type": "uint256"
        }
      ],
      "stateMutability": "view",
      "type": "function"
    },
    {
      "inputs": [
        {
          "internalType": "address",
          "name": "to",
          "type": "address"
        },
        {
          "internalType": "uint256",
          "name": "amount",
          "type": "uint256"
        }
      ],
      "name": "transfer",
      "outputs": [
        {
          "internalType": "bool",
          "name": "",
          "type": "bool"
        }
      ],
      "stateMutability": "nonpayable",
      "type": "function"
    },
    {
      "inputs": [
        {
          "internalType": "address",
          "name": "from",
          "type": "address"
        },
        {
          "internalType": "address",
          "name": "to",
          "type": "address"
        },
        {
          "internalType": "uint256",
          "name": "amount",
          "type": "uint256"
        }
      ],
      "name": "transferFrom",
      "outputs": [
        {
          "internalType": "bool",
          "name": "",
          "type": "bool"
        }
      ],
      "stateMutability": "nonpayable",
      "type": "function"
    },
    {
      "inputs": [
        {
          "internalType": "address",
          "name": "newOwner",
          "type": "address"
        }
      ],
      "name": "transferOwnership",
      "outputs": [],
      "stateMutability": "nonpayable",
      "type": "function"
    },
    {
      "inputs": [],
      "name": "withdraw",
      "outputs": [],
      "stateMutability": "nonpayable",
      "type": "function"
    },
    {
      "stateMutability": "payable",
      "type": "receive"
    }
  ],
  "bytecode": "0x60806040523480156200001157600080fd5b506040516200366f3803806200366f8339818101604052810190620000379190620002a5565b8181620000596200004d620000b760201b60201c565b620000bf60201b60201c565b6001808190555081600590805190602001906200007892919062000183565b5080600690805190602001906200009192919062000183565b5050506001600b60006101000a81548160ff021916908315150217905550505062000488565b600033905090565b60008060009054906101000a900473ffffffffffffffffffffffffffffffffffffffff169050816000806101000a81548173ffffffffffffffffffffffffffffffffffffffff021916908373ffffffffffffffffffffffffffffffffffffffff1602179055508173ffffffffffffffffffffffffffffffffffffffff168173ffffffffffffffffffffffffffffffffffffffff167f8be0079c531659141344cd1fd0a4f28419497f9722a3daafe3b4186f6b6457e060405160405180910390a35050565b8280546200019190620003ad565b90600052602060002090601f016020900481019282620001b5576000855562000201565b82601f10620001d057805160ff191683800117855562000201565b8280016001018555821562000201579182015b8281111562000200578251825591602001919060010190620001e3565b5b50905062000210919062000214565b5090565b5b808211156200022f57600081600090555060010162000215565b5090565b60006200024a620002448462000341565b62000318565b9050828152602081018484840111156200026357600080fd5b6200027084828562000377565b509392505050565b600082601f8301126200028a57600080fd5b81516200029c84826020860162000233565b91505092915050565b60008060408385031215620002b957600080fd5b600083015167ffffffffffffffff811115620002d457600080fd5b620002e28582860162000278565b925050602083015167ffffffffffffffff8111156200030057600080fd5b6200030e8582860162000278565b9150509250929050565b60006200032462000337565b9050620003328282620003e3565b919050565b6000604051905090565b600067ffffffffffffffff8211156200035f576200035e62000448565b5b6200036a8262000477565b9050602081019050919050565b60005b83811015620003975780820151818401526020810190506200037a565b83811115620003a7576000848401525b50505050565b60006002820490506001821680620003c657607f821691505b60208210811415620003dd57620003dc62000419565b5b50919050565b620003ee8262000477565b810181811067ffffffffffffffff8211171562000410576200040f62000448565b5b80604052505050565b7f4e487b7100000000000000000000000000000000000000000000000000000000600052602260045260246000fd5b7f4e487b7100000000000000000000000000000000000000000000000000000000600052604160045260246000fd5b6000601f19601f8301169050919050565b6131d780620004986000396000f3fe6080604052600436106101855760003560e01c8063715018a6116100d1578063a9059cbb1161008a578063db2e21bc11610064578063db2e21bc1461057d578063dd62ed3e14610594578063f2fde38b146105d1578063ff9413d8146105fa57610195565b8063a9059cbb146104ea578063cf30901214610527578063d5abeb011461055257610195565b8063715018a6146103ea5780638da5cb5b14610401578063955c84201461042c57806395d643a81461045757806395d89b4114610482578063a457c2d7146104ad57610195565b806334fcf4371161013e57806340c10f191161011857806340c10f191461033d5780634a7a124714610366578063679aefce1461038257806370a08231146103ad57610195565b806334fcf437146102c057806339509351146102e95780633ccfd60b1461032657610195565b806306fdde031461019a578063095ea7b3146101c557806318160ddd1461020257806323b872dd1461022d578063313ce5671461026a57806332cb6b0c1461029557610195565b366101955761019334610611565b005b600080fd5b3480156101a657600080fd5b506101af6106da565b6040516101bc9190612724565b60405180910390f35b3480156101d157600080fd5b506101ec60048036038101906101e7919061216f565b61076c565b6040516101f99190612709565b60405180910390f35b34801561020e57600080fd5b5061021761078f565b60405161022491906129a6565b60405180910390f35b34801561023957600080fd5b50610254600480360381019061024f9190612120565b610799565b6040516102619190612709565b60405180910390f35b34801561027657600080fd5b5061027f6107c8565b60405161028c91906129ea565b60405180910390f35b3480156102a157600080fd5b506102aa6107d1565b6040516102b791906129a6565b60405180910390f35b3480156102cc57600080fd5b506102e760048036038101906102e291906121f0565b6107d8565b005b3480156102f557600080fd5b50610310600480360381019061030b919061216f565b61085e565b60405161031d9190612709565b60405180910390f35b34801561033257600080fd5b5061033b610895565b005b34801561034957600080fd5b50610364600480360381019061035f919061216f565b610ada565b005b610380600480360381019061037b91906121ab565b610bc7565b005b34801561038e57600080fd5b50610397610f41565b6040516103a491906129a6565b60405180910390f35b3480156103b957600080fd5b506103d460048036038101906103cf91906120bb565b610f4b565b6040516103e191906129a6565b60405180910390f35b3480156103f657600080fd5b506103ff610f94565b005b34801561040d57600080fd5b5061041661101c565b60405161042391906126cc565b60405180910390f35b34801561043857600080fd5b50610441611045565b60405161044e91906126e7565b60405180910390f35b34801561046357600080fd5b5061046c61115c565b60405161047991906129a6565b60405180910390f35b34801561048e57600080fd5b50610497611245565b6040516104a49190612724565b60405180910390f35b3480156104b957600080fd5b506104d460048036038101906104cf919061216f565b6112d7565b6040516104e19190612709565b60405180910390f35b3480156104f657600080fd5b50610511600480360381019061050c919061216f565b61134e565b60405161051e9190612709565b60405180910390f35b34801561053357600080fd5b5061053c611371565b6040516105499190612709565b60405180910390f35b34801561055e57600080fd5b50610567611384565b60405161057491906129a6565b60405180910390f35b34801561058957600080fd5b5061059261138f565b005b3480156105a057600080fd5b506105bb60048036038101906105b691906120e4565b6114c1565b6040516105c891906129a6565b60405180910390f35b3480156105dd57600080fd5b506105f860048036038101906105f391906120bb565b611548565b005b34801561060657600080fd5b5061060f611640565b005b600061061b61078f565b141561065c576040517f08c379a000000000000000000000000000000000000000000000000000000000815260040161065390612786565b60405180910390fd5b61066461078f565b633b9aca0063ffffffff168261067a9190612b25565b6106849190612af4565b600860008282546106959190612a9e565b925050819055507f063d07ee72a7483b8e07ca09054bb686775c5c030f945dde3823a5257a0a93eb816008546040516106cf9291906129c1565b60405180910390a150565b6060600580546106e990612c3b565b80601f016020809104026020016040519081016040528092919081815260200182805461071590612c3b565b80156107625780601f1061073757610100808354040283529160200191610762565b820191906000526020600020905b81548152906001019060200180831161074557829003601f168201915b5050505050905090565b6000806107776116e8565b90506107848185856116f0565b600191505092915050565b6000600454905090565b6000806107a46116e8565b90506107b18582856118bb565b6107bc858585611947565b60019150509392505050565b60006012905090565b620f424081565b6107e06116e8565b73ffffffffffffffffffffffffffffffffffffffff166107fe61101c565b73ffffffffffffffffffffffffffffffffffffffff1614610854576040517f08c379a000000000000000000000000000000000000000000000000000000000815260040161084b90612886565b60405180910390fd5b8060078190555050565b6000806108696116e8565b905061088a81858561087b85896114c1565b6108859190612a9e565b6116f0565b600191505092915050565b600260015414156108db576040517f08c379a00000000000000000000000000000000000000000000000000000000081526004016108d290612946565b60405180910390fd5b6002600181905550600b60009054906101000a900460ff1615610933576040517f08c379a000000000000000000000000000000000000000000000000000000000815260040161092a90612826565b60405180910390fd5b600061093d61115c565b90506000811415610983576040517f08c379a000000000000000000000000000000000000000000000000000000000815260040161097a90612926565b60405180910390fd5b6000600a60006109916116e8565b73ffffffffffffffffffffffffffffffffffffffff1673ffffffffffffffffffffffffffffffffffffffff16815260200190815260200160002081905550600854600960006109de6116e8565b73ffffffffffffffffffffffffffffffffffffffff1673ffffffffffffffffffffffffffffffffffffffff168152602001908152602001600020819055506000610a266116e8565b73ffffffffffffffffffffffffffffffffffffffff1682604051610a49906126b7565b60006040518083038185875af1925050503d8060008114610a86576040519150601f19603f3d011682016040523d82523d6000602084013e610a8b565b606091505b5050905080610acf576040517f08c379a0000000000000000000000000000000000000000000000000000000008152600401610ac6906127c6565b60405180910390fd5b505060018081905550565b610ae26116e8565b73ffffffffffffffffffffffffffffffffffffffff16610b0061101c565b73ffffffffffffffffffffffffffffffffffffffff1614610b56576040517f08c379a0000000000000000000000000000000000000000000000000000000008152600401610b4d90612886565b60405180910390fd5b80620f4240610b6361078f565b82610b6e9190612a9e565b1115610baf576040517f08c379a0000000000000000000000000000000000000000000000000000000008152600401610ba6906128a6565b60405180910390fd5b610bb883611bcb565b610bc28383611cf3565b505050565b600760ff16828290501115610c11576040517f08c379a0000000000000000000000000000000000000000000000000000000008152600401610c08906128e6565b60405180910390fd5b60005b828290508160ff161015610dab57600073ffffffffffffffffffffffffffffffffffffffff16600d600085858560ff16818110610c7a577f4e487b7100000000000000000000000000000000000000000000000000000000600052603260045260246000fd5b90506020020135815260200190815260200160002060009054906101000a900473ffffffffffffffffffffffffffffffffffffffff1673ffffffffffffffffffffffffffffffffffffffff1614610d06576040517f08c379a0000000000000000000000000000000000000000000000000000000008152600401610cfd906127a6565b60405180910390fd5b33600d600085858560ff16818110610d47577f4e487b7100000000000000000000000000000000000000000000000000000000600052603260045260246000fd5b90506020020135815260200190815260200160002060006101000a81548173ffffffffffffffffffffffffffffffffffffffff021916908373ffffffffffffffffffffffffffffffffffffffff16021790555080610da490612c6d565b9050610c14565b50610db4611fa6565b60075483839050610dc59190612b25565b81602001818152505033816000019073ffffffffffffffffffffffffffffffffffffffff16908173ffffffffffffffffffffffffffffffffffffffff1681525050828280806020026020016040519081016040528093929190818152602001838360200280828437600081840152601f19601f8201169050808301925050505050505081604001819052508060200151341015610e97576040517f08c379a0000000000000000000000000000000000000000000000000000000008152600401610e8e90612766565b60405180910390fd5b610ea034610611565b600c81908060018154018082558091505060019003906000526020600020906003020160009091909190915060008201518160000160006101000a81548173ffffffffffffffffffffffffffffffffffffffff021916908373ffffffffffffffffffffffffffffffffffffffff160217905550602082015181600101556040820151816002019080519060200190610f39929190611fdd565b505050505050565b6000600754905090565b6000600260008373ffffffffffffffffffffffffffffffffffffffff1673ffffffffffffffffffffffffffffffffffffffff168152602001908152602001600020549050919050565b610f9c6116e8565b73ffffffffffffffffffffffffffffffffffffffff16610fba61101c565b73ffffffffffffffffffffffffffffffffffffffff1614611010576040517f08c379a000000000000000000000000000000000000000000000000000000000815260040161100790612886565b60405180910390fd5b61101a6000611e54565b565b60008060009054906101000a900473ffffffffffffffffffffffffffffffffffffffff16905090565b6060600c805480602002602001604051908101604052809291908181526020016000905b8282101561115357838290600052602060002090600302016040518060600160405290816000820160009054906101000a900473ffffffffffffffffffffffffffffffffffffffff1673ffffffffffffffffffffffffffffffffffffffff1673ffffffffffffffffffffffffffffffffffffffff168152602001600182015481526020016002820180548060200260200160405190810160405280929190818152602001828054801561113b57602002820191906000526020600020905b815481526020019060010190808311611127575b50505050508152505081526020019060010190611069565b50505050905090565b60008061116f61116a6116e8565b610f4b565b90506000633b9aca0063ffffffff16826009600061118b6116e8565b73ffffffffffffffffffffffffffffffffffffffff1673ffffffffffffffffffffffffffffffffffffffff168152602001908152602001600020546008546111d39190612b7f565b6111dd9190612b25565b6111e79190612af4565b9050600a60006111f56116e8565b73ffffffffffffffffffffffffffffffffffffffff1673ffffffffffffffffffffffffffffffffffffffff168152602001908152602001600020548161123b9190612a9e565b9050809250505090565b60606006805461125490612c3b565b80601f016020809104026020016040519081016040528092919081815260200182805461128090612c3b565b80156112cd5780601f106112a2576101008083540402835291602001916112cd565b820191906000526020600020905b8154815290600101906020018083116112b057829003601f168201915b5050505050905090565b6000806112e26116e8565b905060006112f082866114c1565b905083811015611335576040517f08c379a000000000000000000000000000000000000000000000000000000000815260040161132c90612966565b60405180910390fd5b61134282868684036116f0565b60019250505092915050565b6000806113596116e8565b9050611366818585611947565b600191505092915050565b600b60009054906101000a900460ff1681565b6000620f4240905090565b6113976116e8565b73ffffffffffffffffffffffffffffffffffffffff166113b561101c565b73ffffffffffffffffffffffffffffffffffffffff161461140b576040517f08c379a000000000000000000000000000000000000000000000000000000000815260040161140290612886565b60405180910390fd5b600061141561101c565b73ffffffffffffffffffffffffffffffffffffffff1647604051611438906126b7565b60006040518083038185875af1925050503d8060008114611475576040519150601f19603f3d011682016040523d82523d6000602084013e61147a565b606091505b50509050806114be576040517f08c379a00000000000000000000000000000000000000000000000000000000081526004016114b5906127c6565b60405180910390fd5b50565b6000600360008473ffffffffffffffffffffffffffffffffffffffff1673ffffffffffffffffffffffffffffffffffffffff16815260200190815260200160002060008373ffffffffffffffffffffffffffffffffffffffff1673ffffffffffffffffffffffffffffffffffffffff16815260200190815260200160002054905092915050565b6115506116e8565b73ffffffffffffffffffffffffffffffffffffffff1661156e61101c565b73ffffffffffffffffffffffffffffffffffffffff16146115c4576040517f08c379a00000000000000000000000000000000000000000000000000000000081526004016115bb90612886565b60405180910390fd5b600073ffffffffffffffffffffffffffffffffffffffff168173ffffffffffffffffffffffffffffffffffffffff161415611634576040517f08c379a000000000000000000000000000000000000000000000000000000000815260040161162b906127e6565b60405180910390fd5b61163d81611e54565b50565b6116486116e8565b73ffffffffffffffffffffffffffffffffffffffff1661166661101c565b73ffffffffffffffffffffffffffffffffffffffff16146116bc576040517f08c379a00000000000000000000000000000000000000000000000000000000081526004016116b390612886565b60405180910390fd5b600b60009054906101000a900460ff1615600b60006101000a81548160ff021916908315150217905550565b600033905090565b600073ffffffffffffffffffffffffffffffffffffffff168373ffffffffffffffffffffffffffffffffffffffff161415611760576040517f08c379a000000000000000000000000000000000000000000000000000000000815260040161175790612906565b60405180910390fd5b600073ffffffffffffffffffffffffffffffffffffffff168273ffffffffffffffffffffffffffffffffffffffff1614156117d0576040517f08c379a00000000000000000000000000000000000000000000000000000000081526004016117c790612806565b60405180910390fd5b80600360008573ffffffffffffffffffffffffffffffffffffffff1673ffffffffffffffffffffffffffffffffffffffff16815260200190815260200160002060008473ffffffffffffffffffffffffffffffffffffffff1673ffffffffffffffffffffffffffffffffffffffff168152602001908152602001600020819055508173ffffffffffffffffffffffffffffffffffffffff168373ffffffffffffffffffffffffffffffffffffffff167f8c5be1e5ebec7d5bd14f71427d1e84f3dd0314c0f7b2291e5b200ac8c7c3b925836040516118ae91906129a6565b60405180910390a3505050565b60006118c784846114c1565b90507fffffffffffffffffffffffffffffffffffffffffffffffffffffffffffffffff81146119415781811015611933576040517f08c379a000000000000000000000000000000000000000000000000000000000815260040161192a90612846565b60405180910390fd5b61194084848484036116f0565b5b50505050565b600073ffffffffffffffffffffffffffffffffffffffff168373ffffffffffffffffffffffffffffffffffffffff1614156119b7576040517f08c379a00000000000000000000000000000000000000000000000000000000081526004016119ae906128c6565b60405180910390fd5b600073ffffffffffffffffffffffffffffffffffffffff168273ffffffffffffffffffffffffffffffffffffffff161415611a27576040517f08c379a0000000000000000000000000000000000000000000000000000000008152600401611a1e90612746565b60405180910390fd5b611a32838383611f18565b6000600260008573ffffffffffffffffffffffffffffffffffffffff1673ffffffffffffffffffffffffffffffffffffffff16815260200190815260200160002054905081811015611ab9576040517f08c379a0000000000000000000000000000000000000000000000000000000008152600401611ab090612866565b60405180910390fd5b818103600260008673ffffffffffffffffffffffffffffffffffffffff1673ffffffffffffffffffffffffffffffffffffffff1681526020019081526020016000208190555081600260008573ffffffffffffffffffffffffffffffffffffffff1673ffffffffffffffffffffffffffffffffffffffff1681526020019081526020016000206000828254611b4e9190612a9e565b925050819055508273ffffffffffffffffffffffffffffffffffffffff168473ffffffffffffffffffffffffffffffffffffffff167fddf252ad1be2c89b69c2b068fc378daa952ba7f163c4a11628f55a4df523b3ef84604051611bb291906129a6565b60405180910390a3611bc5848484611fa1565b50505050565b6000611bd682610f4b565b905060008114611ca9576000633b9aca0063ffffffff1682600960008673ffffffffffffffffffffffffffffffffffffffff1673ffffffffffffffffffffffffffffffffffffffff16815260200190815260200160002054600854611c3b9190612b7f565b611c459190612b25565b611c4f9190612af4565b905080600a60008573ffffffffffffffffffffffffffffffffffffffff1673ffffffffffffffffffffffffffffffffffffffff1681526020019081526020016000206000828254611ca09190612a9e565b92505081905550505b600854600960008473ffffffffffffffffffffffffffffffffffffffff1673ffffffffffffffffffffffffffffffffffffffff168152602001908152602001600020819055505050565b600073ffffffffffffffffffffffffffffffffffffffff168273ffffffffffffffffffffffffffffffffffffffff161415611d63576040517f08c379a0000000000000000000000000000000000000000000000000000000008152600401611d5a90612986565b60405180910390fd5b611d6f60008383611f18565b8060046000828254611d819190612a9e565b9250508190555080600260008473ffffffffffffffffffffffffffffffffffffffff1673ffffffffffffffffffffffffffffffffffffffff1681526020019081526020016000206000828254611dd79190612a9e565b925050819055508173ffffffffffffffffffffffffffffffffffffffff16600073ffffffffffffffffffffffffffffffffffffffff167fddf252ad1be2c89b69c2b068fc378daa952ba7f163c4a11628f55a4df523b3ef83604051611e3c91906129a6565b60405180910390a3611e5060008383611fa1565b5050565b60008060009054906101000a900473ffffffffffffffffffffffffffffffffffffffff169050816000806101000a81548173ffffffffffffffffffffffffffffffffffffffff021916908373ffffffffffffffffffffffffffffffffffffffff1602179055508173ffffffffffffffffffffffffffffffffffffffff168173ffffffffffffffffffffffffffffffffffffffff167f8be0079c531659141344cd1fd0a4f28419497f9722a3daafe3b4186f6b6457e060405160405180910390a35050565b600073ffffffffffffffffffffffffffffffffffffffff168373ffffffffffffffffffffffffffffffffffffffff161480611f7f5750600073ffffffffffffffffffffffffffffffffffffffff168273ffffffffffffffffffffffffffffffffffffffff16145b15611f8957611f9c565b611f9282611bcb565b611f9b83611bcb565b5b505050565b505050565b6040518060600160405280600073ffffffffffffffffffffffffffffffffffffffff16815260200160008152602001606081525090565b828054828255906000526020600020908101928215612019579160200282015b82811115612018578251825591602001919060010190611ffd565b5b509050612026919061202a565b5090565b5b8082111561204357600081600090555060010161202b565b5090565b60008135905061205681613173565b92915050565b60008083601f84011261206e57600080fd5b8235905067ffffffffffffffff81111561208757600080fd5b60208301915083602082028301111561209f57600080fd5b9250929050565b6000813590506120b58161318a565b92915050565b6000602082840312156120cd57600080fd5b60006120db84828501612047565b91505092915050565b600080604083850312156120f757600080fd5b600061210585828601612047565b925050602061211685828601612047565b9150509250929050565b60008060006060848603121561213557600080fd5b600061214386828701612047565b935050602061215486828701612047565b9250506040612165868287016120a6565b9150509250925092565b6000806040838503121561218257600080fd5b600061219085828601612047565b92505060206121a1858286016120a6565b9150509250929050565b600080602083850312156121be57600080fd5b600083013567ffffffffffffffff8111156121d857600080fd5b6121e48582860161205c565b92509250509250929050565b60006020828403121561220257600080fd5b6000612210848285016120a6565b91505092915050565b6000612225838361263a565b905092915050565b6000612239838361268a565b60208301905092915050565b61224e81612bb3565b82525050565b61225d81612bb3565b82525050565b600061226e82612a25565b6122788185612a60565b93508360208202850161228a85612a05565b8060005b858110156122c657848403895281516122a78582612219565b94506122b283612a46565b925060208a0199505060018101905061228e565b50829750879550505050505092915050565b60006122e382612a30565b6122ed8185612a71565b93506122f883612a15565b8060005b83811015612329578151612310888261222d565b975061231b83612a53565b9250506001810190506122fc565b5085935050505092915050565b61233f81612bc5565b82525050565b600061235082612a3b565b61235a8185612a8d565b935061236a818560208601612c08565b61237381612d24565b840191505092915050565b600061238b602383612a8d565b915061239682612d35565b604082019050919050565b60006123ae601b83612a8d565b91506123b982612d84565b602082019050919050565b60006123d1601083612a8d565b91506123dc82612dad565b602082019050919050565b60006123f4601383612a8d565b91506123ff82612dd6565b602082019050919050565b6000612417601f83612a8d565b915061242282612dff565b602082019050919050565b600061243a602683612a8d565b915061244582612e28565b604082019050919050565b600061245d602283612a8d565b915061246882612e77565b604082019050919050565b6000612480601c83612a8d565b915061248b82612ec6565b602082019050919050565b60006124a3601d83612a8d565b91506124ae82612eef565b602082019050919050565b60006124c6602683612a8d565b91506124d182612f18565b604082019050919050565b60006124e9602083612a8d565b91506124f482612f67565b602082019050919050565b600061250c601b83612a8d565b915061251782612f90565b602082019050919050565b600061252f602583612a8d565b915061253a82612fb9565b604082019050919050565b6000612552601983612a8d565b915061255d82613008565b602082019050919050565b6000612575600083612a82565b915061258082613031565b600082019050919050565b6000612598602483612a8d565b91506125a382613034565b604082019050919050565b60006125bb602b83612a8d565b91506125c682613083565b604082019050919050565b60006125de601f83612a8d565b91506125e9826130d2565b602082019050919050565b6000612601602583612a8d565b915061260c826130fb565b604082019050919050565b6000612624601f83612a8d565b915061262f8261314a565b602082019050919050565b60006060830160008301516126526000860182612245565b506020830151612665602086018261268a565b506040830151848203604086015261267d82826122d8565b9150508091505092915050565b61269381612bf1565b82525050565b6126a281612bf1565b82525050565b6126b181612bfb565b82525050565b60006126c282612568565b9150819050919050565b60006020820190506126e16000830184612254565b92915050565b600060208201905081810360008301526127018184612263565b905092915050565b600060208201905061271e6000830184612336565b92915050565b6000602082019050818103600083015261273e8184612345565b905092915050565b6000602082019050818103600083015261275f8161237e565b9050919050565b6000602082019050818103600083015261277f816123a1565b9050919050565b6000602082019050818103600083015261279f816123c4565b9050919050565b600060208201905081810360008301526127bf816123e7565b9050919050565b600060208201905081810360008301526127df8161240a565b9050919050565b600060208201905081810360008301526127ff8161242d565b9050919050565b6000602082019050818103600083015261281f81612450565b9050919050565b6000602082019050818103600083015261283f81612473565b9050919050565b6000602082019050818103600083015261285f81612496565b9050919050565b6000602082019050818103600083015261287f816124b9565b9050919050565b6000602082019050818103600083015261289f816124dc565b9050919050565b600060208201905081810360008301526128bf816124ff565b9050919050565b600060208201905081810360008301526128df81612522565b9050919050565b600060208201905081810360008301526128ff81612545565b9050919050565b6000602082019050818103600083015261291f8161258b565b9050919050565b6000602082019050818103600083015261293f816125ae565b9050919050565b6000602082019050818103600083015261295f816125d1565b9050919050565b6000602082019050818103600083015261297f816125f4565b9050919050565b6000602082019050818103600083015261299f81612617565b9050919050565b60006020820190506129bb6000830184612699565b92915050565b60006040820190506129d66000830185612699565b6129e36020830184612699565b9392505050565b60006020820190506129ff60008301846126a8565b92915050565b6000819050602082019050919050565b6000819050602082019050919050565b600081519050919050565b600081519050919050565b600081519050919050565b6000602082019050919050565b6000602082019050919050565b600082825260208201905092915050565b600082825260208201905092915050565b600081905092915050565b600082825260208201905092915050565b6000612aa982612bf1565b9150612ab483612bf1565b9250827fffffffffffffffffffffffffffffffffffffffffffffffffffffffffffffffff03821115612ae957612ae8612c97565b5b828201905092915050565b6000612aff82612bf1565b9150612b0a83612bf1565b925082612b1a57612b19612cc6565b5b828204905092915050565b6000612b3082612bf1565b9150612b3b83612bf1565b9250817fffffffffffffffffffffffffffffffffffffffffffffffffffffffffffffffff0483118215151615612b7457612b73612c97565b5b828202905092915050565b6000612b8a82612bf1565b9150612b9583612bf1565b925082821015612ba857612ba7612c97565b5b828203905092915050565b6000612bbe82612bd1565b9050919050565b60008115159050919050565b600073ffffffffffffffffffffffffffffffffffffffff82169050919050565b6000819050919050565b600060ff82169050919050565b60005b83811015612c26578082015181840152602081019050612c0b565b83811115612c35576000848401525b50505050565b60006002820490506001821680612c5357607f821691505b60208210811415612c6757612c66612cf5565b5b50919050565b6000612c7882612bfb565b915060ff821415612c8c57612c8b612c97565b5b600182019050919050565b7f4e487b7100000000000000000000000000000000000000000000000000000000600052601160045260246000fd5b7f4e487b7100000000000000000000000000000000000000000000000000000000600052601260045260246000fd5b7f4e487b7100000000000000000000000000000000000000000000000000000000600052602260045260246000fd5b6000601f19601f8301169050919050565b7f45524332303a207472616e7366657220746f20746865207a65726f206164647260008201527f6573730000000000000000000000000000000000000000000000000000000000602082015250565b7f426f6f6b696e67207265717569726573206d6f72652065746865720000000000600082015250565b7f4e6f20746f6b656e73206d696e74656400000000000000000000000000000000600082015250565b7f4461746520616c726561647920626f6f6b656400000000000000000000000000600082015250565b7f57656233626e623a20436f756c64206e6f742077697468647261772065746800600082015250565b7f4f776e61626c653a206e6577206f776e657220697320746865207a65726f206160008201527f6464726573730000000000000000000000000000000000000000000000000000602082015250565b7f45524332303a20617070726f766520746f20746865207a65726f20616464726560008201527f7373000000000000000000000000000000000000000000000000000000000000602082015250565b7f436f6e74726163742069732063757272656e746c79206c6f636b656400000000600082015250565b7f45524332303a20696e73756666696369656e7420616c6c6f77616e6365000000600082015250565b7f45524332303a207472616e7366657220616d6f756e742065786365656473206260008201527f616c616e63650000000000000000000000000000000000000000000000000000602082015250565b7f4f776e61626c653a2063616c6c6572206973206e6f7420746865206f776e6572600082015250565b7f416d6f756e7420737572706173736573206d617820737570706c790000000000600082015250565b7f45524332303a207472616e736665722066726f6d20746865207a65726f20616460008201527f6472657373000000000000000000000000000000000000000000000000000000602082015250565b7f4d617820626f6f6b696e67206461797320657863656564656400000000000000600082015250565b50565b7f45524332303a20617070726f76652066726f6d20746865207a65726f2061646460008201527f7265737300000000000000000000000000000000000000000000000000000000602082015250565b7f57656233626e623a2063616c6c657220686173206e6f206469766964656e647360008201527f206f722063726564697473000000000000000000000000000000000000000000602082015250565b7f5265656e7472616e637947756172643a207265656e7472616e742063616c6c00600082015250565b7f45524332303a2064656372656173656420616c6c6f77616e63652062656c6f7760008201527f207a65726f000000000000000000000000000000000000000000000000000000602082015250565b7f45524332303a206d696e7420746f20746865207a65726f206164647265737300600082015250565b61317c81612bb3565b811461318757600080fd5b50565b61319381612bf1565b811461319e57600080fd5b5056fea2646970667358221220fc72a4c2cbc5f6c2f0443fe82de245fae1b5bc3314b88a63824b4f0822d0b8d564736f6c63430008040033",
  "linkReferences": {},
  "deployedLinkReferences": {}
}